{
  "contractName": "NFTDescriptor",
  "abi": [
    {
      "inputs": [
        {
          "components": [
            {
              "internalType": "uint256",
              "name": "tokenId",
              "type": "uint256"
            },
            {
              "internalType": "uint256",
              "name": "blockNumber",
              "type": "uint256"
            },
            {
              "internalType": "string",
              "name": "latitude",
              "type": "string"
            },
            {
              "internalType": "string",
              "name": "longitude",
              "type": "string"
            },
            {
              "internalType": "string",
              "name": "name",
              "type": "string"
            }
          ],
          "internalType": "struct NFTDescriptor.URIParams",
          "name": "params",
          "type": "tuple"
        }
      ],
      "name": "constructTokenURI",
      "outputs": [
        {
          "internalType": "string",
          "name": "",
          "type": "string"
        }
      ],
      "stateMutability": "view",
      "type": "function",
      "constant": true
    }
  ],
  "bytecode": "0x610f4b610026600b82828239805160001a60731461001957fe5b30600052607381538281f3fe73000000000000000000000000000000000000000030146080604052600436106100355760003560e01c80630e1d809e1461003a575b600080fd5b61004d6100483660046105f4565b610063565b60405161005a9190610e4e565b60405180910390f35b60606000826080015160405160200161007c919061075d565b60405160208183030381529060405290506000610097610104565b905060006100ac6100a786610129565b6101ff565b90506100da8383836040516020016100c693929190610785565b6040516020818303038152906040526101ff565b6040516020016100ea9190610e09565b60405160208183030381529060405293505050505b919050565b606060405160200161011590610a9d565b604051602081830303815290604052905090565b606060006040518060e0016040528084600001518152602001846020015181526020018460400151815260200184606001518152602001846080015181526020016101a8856040015186606001516040516020016101889291906106ee565b6040516020818303038152906040528051906020012060001c608861034d565b81526020016101eb856040015186606001516040516020016101cb9291906106ee565b6040516020818303038152906040528051906020012060001c600061034d565b905290506101f88161035e565b9392505050565b606081516000141561022057506040805160208101909152600081526100ff565b6000604051806060016040528060408152602001610ed66040913990506000600384516002018161024d57fe5b04600402905060008160200167ffffffffffffffff8111801561026f57600080fd5b506040519080825280601f01601f19166020018201604052801561029a576020820181803683370190505b509050818152600183018586518101602084015b818310156103085760039283018051603f601282901c811687015160f890811b8552600c83901c8216880151811b6001860152600683901c8216880151811b60028601529116860151901b938201939093526004016102ae565b60038951066001811461032257600281146103335761033f565b613d3d60f01b60011983015261033f565b603d60f81b6000198301525b509398975050505050505050565b90811b9060606101f8836003610399565b606061036982610453565b61037283610478565b60405160200161038392919061071d565b6040516020818303038152906040529050919050565b606060008260020267ffffffffffffffff811180156103b757600080fd5b506040519080825280601f01601f1916602001820160405280156103e2576020820181803683370190505b5080519091505b801561044b576f181899199a1a9b1b9c1cb0b131b232b360811b85600f166010811061041157fe5b1a60f81b82600183038151811061042457fe5b60200101906001600160f81b031916908160001a90535060049490941c93600019016103e9565b509392505050565b606061045e82610489565b61046783610518565b60405160200161038392919061084c565b606060405160200161038390610c26565b606060008260a001518360c001516040516020016104a8929190610dbe565b604051602081830303815290604052905060008360c001518460a001516040516020016104d6929190610dbe565b60405160208183030381529060405290508360a00151828260405160200161050093929190610ada565b60405160208183030381529060405292505050919050565b606060008260a001518360c00151604051602001610537929190610dbe565b604051602081830303815290604052905060008360c001518460a00151604051602001610565929190610dbe565b60405160208183030381529060405290508360c00151818360405160200161050093929190610971565b600082601f83011261059f578081fd5b813567ffffffffffffffff8111156105b357fe5b6105c6601f8201601f1916602001610e81565b8181528460208386010111156105da578283fd5b816020850160208301379081016020019190915292915050565b600060208284031215610605578081fd5b813567ffffffffffffffff8082111561061c578283fd5b9083019060a0828603121561062f578283fd5b61063960a0610e81565b8235815260208301356020820152604083013582811115610658578485fd5b6106648782860161058f565b60408301525060608301358281111561067b578485fd5b6106878782860161058f565b60608301525060808301358281111561069e578485fd5b6106aa8782860161058f565b60808301525095945050505050565b7f2220626567696e3d2261332e656e6422206475723d22337322202f3e3c2f737481526237b81f60e91b602082015260230190565b60008351610700818460208801610ea5565b835190830190610714818360208801610ea5565b01949350505050565b6000835161072f818460208801610ea5565b835190830190610743818360208801610ea5565b651e17b9bb339f60d11b9101908152600601949350505050565b6000825161076f818460208701610ea5565b630813919560e21b920191825250600401919050565b683d913730b6b2911d1160b91b815283516000906107aa816009850160208901610ea5565b71111610113232b9b1b934b83a34b7b7111d1160711b60099184019182015284516107dc81601b840160208901610ea5565b6c1116101134b6b0b3b2911d101160991b601b92909101918201527f646174613a696d6167652f7376672b786d6c3b6261736536342c00000000000060288201528351610830816042840160208801610ea5565b61227d60f01b6042929091019182015260440195945050505050565b60007f3c7376672077696474683d2235313222206865696768743d223531322220766982527f6577426f783d223020302035313220353132222066696c6c3d226e6f6e65222060208301527f786d6c6e733d22687474703a2f2f7777772e77332e6f72672f323030302f737660408301526233911f60e91b6060830152651e3232b3399f60d11b60638301527f3c6c696e6561724772616469656e742069643d226731222078313d22302522206069830152693c989e911a981291101f60b11b60898301528351610924816093850160208801610ea5565b83519083019061093b816093840160208801610ea5565b7f3c2f6c696e6561724772616469656e743e3c2f646566733e00000000000000006093929091019182015260ab01949350505050565b60007f3c73746f70206f66667365743d2231303025222073746f702d636f6c6f723d228252602360f81b602083015284516109b3816021850160208901610ea5565b6211101f60e91b6021918401918201527f3c616e696d6174652069643d22613322206174747269627574654e616d653d2260248201527339ba37b816b1b7b637b911103b30b63ab2b99e9160611b604482018190528551610a1b816058850160208a01610ea5565b7f2220626567696e3d22303b2061342e656e6422206475723d22337322202f3e00605893909101928301527f3c616e696d6174652069643d22613422206174747269627574654e616d653d22607783015260978201528351610a848160ab840160208801610ea5565b610a9260ab828401016106b9565b979650505050505050565b7f4c5556204e4654206973206d616465206279204861687a20546572727920616e81526a32102530bc902634b72e3760a91b6020820152602b0190565b60007f3c73746f70206f66667365743d223025222073746f702d636f6c6f723d22230082528451610b1281601f850160208901610ea5565b6211101f60e91b601f918401918201527f3c616e696d6174652069643d22613122206174747269627574654e616d653d2260228201527339ba37b816b1b7b637b911103b30b63ab2b99e9160611b604282018190528551610b7a816056850160208a01610ea5565b7f2220626567696e3d22303b2061322e656e6422206475723d22337322202f3e00605693909101928301527f3c616e696d6174652069643d22613222206174747269627574654e616d653d22607583015260958201528351610be38160a9840160208801610ea5565b7f2220626567696e3d2261312e656e6422206475723d22337322202f3e3c2f737460a992909101918201526237b81f60e91b60c982015260cc0195945050505050565b7f3c726563742069643d22722220783d22302220793d2230222072783d2232362281527f2072793d223236222077696474683d2235313222206865696768743d2235313260208201527311103334b6361e913ab9361411b398949110179f60611b60408201527f3c7265637420783d2231362220793d223136222077696474683d22343830222060548201527f6865696768743d22343830222072783d223136222072793d223136222066696c60748201527f6c3d227267626128302c302c302c302922207374726f6b653d2272676261283260948201527f35352c3235352c3235352c302e3429223e3c2f726563743e000000000000000060b48201527f3c7265637420783d22302220793d2230222077696474683d223531322220686560cc8201527f696768743d22353132222072783d223235222072793d223235222066696c6c3d60ec8201527f227267626128302c302c302c302922207374726f6b653d22726762612832353561010c8201527516191a9a96191a9a9618171a14911f1e17b932b1ba1f60511b61012c8201526101420190565b6000602360f81b82528351610dda816001850160208801610ea5565b623b202360e81b6001918401918201528351610dfd816004840160208801610ea5565b01600401949350505050565b60007f646174613a6170706c69636174696f6e2f6a736f6e3b6261736536342c00000082528251610e4181601d850160208701610ea5565b91909101601d0192915050565b6000602082528251806020840152610e6d816040850160208701610ea5565b601f01601f19169190910160400192915050565b60405181810167ffffffffffffffff81118282101715610e9d57fe5b604052919050565b60005b83811015610ec0578181015183820152602001610ea8565b83811115610ecf576000848401525b5050505056fe4142434445464748494a4b4c4d4e4f505152535455565758595a6162636465666768696a6b6c6d6e6f707172737475767778797a303132333435363738392b2fa26469706673582212206b78b1f6484cb5f4640de925f38621afa45793d6735e666f40e27d696db1936764736f6c63430007060033",
  "immutableReferences": {},
  "source": "// SPDX-License-Identifier: MIT\npragma solidity ^0.7.6;\npragma abicoder v2;\n\nimport '@openzeppelin/contracts/utils/Strings.sol';\nimport '@openzeppelin/contracts/math/SafeMath.sol';\nimport '@openzeppelin/contracts/math/SignedSafeMath.sol';\nimport 'base64-sol/base64.sol';\nimport './HexStrings.sol';\nimport './NFTSVG.sol';\n\nlibrary NFTDescriptor {\n    using Strings for uint256;\n    using SafeMath for uint256;\n    using SafeMath for uint160;\n    using SafeMath for uint8;\n    using SignedSafeMath for int256;\n    using HexStrings for uint256;\n\n    struct URIParams {\n        uint256 tokenId;\n        uint256 blockNumber;\n        string latitude;\n        string longitude;\n        string name;\n    }\n\n    function constructTokenURI(URIParams memory params) public view returns (string memory) {\n        string memory name = string(abi.encodePacked(params.name, ' NFT'));\n        string memory description = generateDescription();\n        string memory image = Base64.encode(bytes(generateSVGImage(params)));\n\n        return\n            string(\n                abi.encodePacked(\n                    'data:application/json;base64,',\n                    Base64.encode(\n                        bytes(\n                            abi.encodePacked(\n                                '{\"name\":\"',\n                                name,\n                                '\", \"description\":\"',\n                                description,\n                                '\", \"image\": \"',\n                                'data:image/svg+xml;base64,',\n                                image,\n                                '\"}'\n                            )\n                        )\n                    )\n                )\n            );\n    }\n\n    function escapeQuotes(string memory symbol) internal pure returns (string memory) {\n        bytes memory symbolBytes = bytes(symbol);\n        uint8 quotesCount = 0;\n        for (uint8 i = 0; i < symbolBytes.length; i++) {\n            if (symbolBytes[i] == '\"') {\n                quotesCount++;\n            }\n        }\n        if (quotesCount > 0) {\n            bytes memory escapedBytes = new bytes(symbolBytes.length + (quotesCount));\n            uint256 index;\n            for (uint8 i = 0; i < symbolBytes.length; i++) {\n                if (symbolBytes[i] == '\"') {\n                    escapedBytes[index++] = '\\\\';\n                }\n                escapedBytes[index++] = symbolBytes[i];\n            }\n            return string(escapedBytes);\n        }\n        return symbol;\n    }\n\n     function addressToString(address addr) internal pure returns (string memory) {\n        return (uint256(addr)).toHexString(20);\n    }\n\n    function toColorHex(uint256 base, uint256 offset) internal view returns (string memory str) {\n        // console.log(\"base\", base);\n        // console.log(\"(base >> offset)\", (base >> offset));\n        // console.log(\"hex\", string((base >> offset).toHexStringNoPrefix(3)));\n        return string((base <<= offset).toHexStringNoPrefix(3));\n    }\n\n    function generateDescription() private pure returns (string memory) {\n        return\n            string(\n                abi.encodePacked(\n                    'LUV NFT is made by Hahz Terry and Jay Lin\\\\n'\n                )\n            );\n    }\n\n    function generateSVGImage(URIParams memory params) internal view returns (string memory svg) {\n        NFTSVG.SVGParams memory svgParams =\n            NFTSVG.SVGParams({\n                tokenId: params.tokenId,\n                blockNumber: params.blockNumber,\n                uToken: params.latitude,\n                longitude: params.longitude,\n                name: params.name,\n                color0: toColorHex(uint256(keccak256(abi.encodePacked(params.latitude,params.longitude))), 136),\n                color1: toColorHex(uint256(keccak256(abi.encodePacked(params.latitude,params.longitude))), 0)\n            });\n\n        return NFTSVG.generateSVG(svgParams);\n    }\n}",
  "sourcePath": "C:\\development\\luv-nft-estate\\truffle\\contracts\\GenerativeNFT.sol",
  "compiler": {
    "name": "solc",
    "version": "0.7.6+commit.7338295f.Emscripten.clang"
  },
  "schemaVersion": "3.4.4",
  "updatedAt": "2022-02-19T13:51:18.560Z",
  "networkType": "ethereum",
  "devdoc": {
    "kind": "dev",
    "methods": {},
    "version": 1
  },
  "userdoc": {
    "kind": "user",
    "methods": {},
    "version": 1
  }
}