{
  "contractName": "WorldNFT",
  "abi": [
    {
      "inputs": [],
      "stateMutability": "nonpayable",
      "type": "constructor"
    },
    {
      "anonymous": false,
      "inputs": [
        {
          "indexed": true,
          "internalType": "address",
          "name": "owner",
          "type": "address"
        },
        {
          "indexed": true,
          "internalType": "address",
          "name": "approved",
          "type": "address"
        },
        {
          "indexed": true,
          "internalType": "uint256",
          "name": "tokenId",
          "type": "uint256"
        }
      ],
      "name": "Approval",
      "type": "event"
    },
    {
      "anonymous": false,
      "inputs": [
        {
          "indexed": true,
          "internalType": "address",
          "name": "owner",
          "type": "address"
        },
        {
          "indexed": true,
          "internalType": "address",
          "name": "operator",
          "type": "address"
        },
        {
          "indexed": false,
          "internalType": "bool",
          "name": "approved",
          "type": "bool"
        }
      ],
      "name": "ApprovalForAll",
      "type": "event"
    },
    {
      "anonymous": false,
      "inputs": [
        {
          "indexed": false,
          "internalType": "address",
          "name": "bidAddress",
          "type": "address"
        },
        {
          "indexed": false,
          "internalType": "uint256",
          "name": "bidValue",
          "type": "uint256"
        }
      ],
      "name": "AuctionEnded",
      "type": "event"
    },
    {
      "anonymous": false,
      "inputs": [
        {
          "indexed": false,
          "internalType": "address",
          "name": "ownerAddress",
          "type": "address"
        },
        {
          "indexed": false,
          "internalType": "uint256",
          "name": "_biddingTime",
          "type": "uint256"
        }
      ],
      "name": "AuctionStarted",
      "type": "event"
    },
    {
      "anonymous": false,
      "inputs": [
        {
          "indexed": false,
          "internalType": "address",
          "name": "bidAddress",
          "type": "address"
        },
        {
          "indexed": false,
          "internalType": "uint256",
          "name": "bidValue",
          "type": "uint256"
        }
      ],
      "name": "BidIncrease",
      "type": "event"
    },
    {
      "anonymous": false,
      "inputs": [
        {
          "indexed": false,
          "internalType": "address",
          "name": "bidAddress",
          "type": "address"
        },
        {
          "indexed": false,
          "internalType": "uint256",
          "name": "bidValue",
          "type": "uint256"
        }
      ],
      "name": "BidRejected",
      "type": "event"
    },
    {
      "anonymous": false,
      "inputs": [
        {
          "indexed": false,
          "internalType": "address",
          "name": "bidAddress",
          "type": "address"
        },
        {
          "indexed": false,
          "internalType": "uint256",
          "name": "bidValue",
          "type": "uint256"
        }
      ],
      "name": "BidWithdrawn",
      "type": "event"
    },
    {
      "anonymous": false,
      "inputs": [
        {
          "indexed": false,
          "internalType": "address",
          "name": "_seller",
          "type": "address"
        },
        {
          "indexed": false,
          "internalType": "address",
          "name": "_buyer",
          "type": "address"
        },
        {
          "indexed": false,
          "internalType": "uint256",
          "name": "_price",
          "type": "uint256"
        }
      ],
      "name": "NftBought",
      "type": "event"
    },
    {
      "anonymous": false,
      "inputs": [
        {
          "indexed": true,
          "internalType": "address",
          "name": "previousOwner",
          "type": "address"
        },
        {
          "indexed": true,
          "internalType": "address",
          "name": "newOwner",
          "type": "address"
        }
      ],
      "name": "OwnershipTransferred",
      "type": "event"
    },
    {
      "anonymous": false,
      "inputs": [
        {
          "indexed": true,
          "internalType": "address",
          "name": "from",
          "type": "address"
        },
        {
          "indexed": true,
          "internalType": "address",
          "name": "to",
          "type": "address"
        },
        {
          "indexed": true,
          "internalType": "uint256",
          "name": "tokenId",
          "type": "uint256"
        }
      ],
      "name": "Transfer",
      "type": "event"
    },
    {
      "inputs": [],
      "name": "acceptedBidsIdx",
      "outputs": [
        {
          "internalType": "uint256",
          "name": "",
          "type": "uint256"
        }
      ],
      "stateMutability": "view",
      "type": "function"
    },
    {
      "inputs": [
        {
          "internalType": "address",
          "name": "to",
          "type": "address"
        },
        {
          "internalType": "uint256",
          "name": "tokenId",
          "type": "uint256"
        }
      ],
      "name": "approve",
      "outputs": [],
      "stateMutability": "nonpayable",
      "type": "function"
    },
    {
      "inputs": [
        {
          "internalType": "address",
          "name": "owner",
          "type": "address"
        }
      ],
      "name": "balanceOf",
      "outputs": [
        {
          "internalType": "uint256",
          "name": "",
          "type": "uint256"
        }
      ],
      "stateMutability": "view",
      "type": "function"
    },
    {
      "inputs": [],
      "name": "baseURI",
      "outputs": [
        {
          "internalType": "string",
          "name": "",
          "type": "string"
        }
      ],
      "stateMutability": "view",
      "type": "function"
    },
    {
      "inputs": [
        {
          "internalType": "uint256",
          "name": "tokenId",
          "type": "uint256"
        }
      ],
      "name": "getApproved",
      "outputs": [
        {
          "internalType": "address",
          "name": "",
          "type": "address"
        }
      ],
      "stateMutability": "view",
      "type": "function"
    },
    {
      "inputs": [
        {
          "internalType": "address",
          "name": "owner",
          "type": "address"
        },
        {
          "internalType": "address",
          "name": "operator",
          "type": "address"
        }
      ],
      "name": "isApprovedForAll",
      "outputs": [
        {
          "internalType": "bool",
          "name": "",
          "type": "bool"
        }
      ],
      "stateMutability": "view",
      "type": "function"
    },
    {
      "inputs": [],
      "name": "name",
      "outputs": [
        {
          "internalType": "string",
          "name": "",
          "type": "string"
        }
      ],
      "stateMutability": "view",
      "type": "function"
    },
    {
      "inputs": [],
      "name": "nextId",
      "outputs": [
        {
          "internalType": "uint256",
          "name": "",
          "type": "uint256"
        }
      ],
      "stateMutability": "view",
      "type": "function"
    },
    {
      "inputs": [],
      "name": "owner",
      "outputs": [
        {
          "internalType": "address",
          "name": "",
          "type": "address"
        }
      ],
      "stateMutability": "view",
      "type": "function"
    },
    {
      "inputs": [
        {
          "internalType": "uint256",
          "name": "tokenId",
          "type": "uint256"
        }
      ],
      "name": "ownerOf",
      "outputs": [
        {
          "internalType": "address",
          "name": "",
          "type": "address"
        }
      ],
      "stateMutability": "view",
      "type": "function"
    },
    {
      "inputs": [],
      "name": "renounceOwnership",
      "outputs": [],
      "stateMutability": "nonpayable",
      "type": "function"
    },
    {
      "inputs": [
        {
          "internalType": "address",
          "name": "from",
          "type": "address"
        },
        {
          "internalType": "address",
          "name": "to",
          "type": "address"
        },
        {
          "internalType": "uint256",
          "name": "tokenId",
          "type": "uint256"
        }
      ],
      "name": "safeTransferFrom",
      "outputs": [],
      "stateMutability": "nonpayable",
      "type": "function"
    },
    {
      "inputs": [
        {
          "internalType": "address",
          "name": "from",
          "type": "address"
        },
        {
          "internalType": "address",
          "name": "to",
          "type": "address"
        },
        {
          "internalType": "uint256",
          "name": "tokenId",
          "type": "uint256"
        },
        {
          "internalType": "bytes",
          "name": "_data",
          "type": "bytes"
        }
      ],
      "name": "safeTransferFrom",
      "outputs": [],
      "stateMutability": "nonpayable",
      "type": "function"
    },
    {
      "inputs": [
        {
          "internalType": "address",
          "name": "operator",
          "type": "address"
        },
        {
          "internalType": "bool",
          "name": "approved",
          "type": "bool"
        }
      ],
      "name": "setApprovalForAll",
      "outputs": [],
      "stateMutability": "nonpayable",
      "type": "function"
    },
    {
      "inputs": [
        {
          "internalType": "bytes4",
          "name": "interfaceId",
          "type": "bytes4"
        }
      ],
      "name": "supportsInterface",
      "outputs": [
        {
          "internalType": "bool",
          "name": "",
          "type": "bool"
        }
      ],
      "stateMutability": "view",
      "type": "function"
    },
    {
      "inputs": [],
      "name": "symbol",
      "outputs": [
        {
          "internalType": "string",
          "name": "",
          "type": "string"
        }
      ],
      "stateMutability": "view",
      "type": "function"
    },
    {
      "inputs": [
        {
          "internalType": "uint256",
          "name": "index",
          "type": "uint256"
        }
      ],
      "name": "tokenByIndex",
      "outputs": [
        {
          "internalType": "uint256",
          "name": "",
          "type": "uint256"
        }
      ],
      "stateMutability": "view",
      "type": "function"
    },
    {
      "inputs": [
        {
          "internalType": "uint256",
          "name": "",
          "type": "uint256"
        }
      ],
      "name": "tokenIdToPrice",
      "outputs": [
        {
          "internalType": "uint256",
          "name": "",
          "type": "uint256"
        }
      ],
      "stateMutability": "view",
      "type": "function"
    },
    {
      "inputs": [
        {
          "internalType": "address",
          "name": "owner",
          "type": "address"
        },
        {
          "internalType": "uint256",
          "name": "index",
          "type": "uint256"
        }
      ],
      "name": "tokenOfOwnerByIndex",
      "outputs": [
        {
          "internalType": "uint256",
          "name": "",
          "type": "uint256"
        }
      ],
      "stateMutability": "view",
      "type": "function"
    },
    {
      "inputs": [
        {
          "internalType": "uint256",
          "name": "tokenId",
          "type": "uint256"
        }
      ],
      "name": "tokenURI",
      "outputs": [
        {
          "internalType": "string",
          "name": "",
          "type": "string"
        }
      ],
      "stateMutability": "view",
      "type": "function"
    },
    {
      "inputs": [],
      "name": "totalSupply",
      "outputs": [
        {
          "internalType": "uint256",
          "name": "",
          "type": "uint256"
        }
      ],
      "stateMutability": "view",
      "type": "function"
    },
    {
      "inputs": [
        {
          "internalType": "address",
          "name": "from",
          "type": "address"
        },
        {
          "internalType": "address",
          "name": "to",
          "type": "address"
        },
        {
          "internalType": "uint256",
          "name": "tokenId",
          "type": "uint256"
        }
      ],
      "name": "transferFrom",
      "outputs": [],
      "stateMutability": "nonpayable",
      "type": "function"
    },
    {
      "inputs": [
        {
          "internalType": "address",
          "name": "newOwner",
          "type": "address"
        }
      ],
      "name": "transferOwnership",
      "outputs": [],
      "stateMutability": "nonpayable",
      "type": "function"
    },
    {
      "inputs": [
        {
          "internalType": "uint256",
          "name": "tokenId",
          "type": "uint256"
        }
      ],
      "name": "getTokenDetails",
      "outputs": [
        {
          "components": [
            {
              "internalType": "string",
              "name": "location_name",
              "type": "string"
            },
            {
              "internalType": "string",
              "name": "svg_image",
              "type": "string"
            },
            {
              "internalType": "bool",
              "name": "isExist",
              "type": "bool"
            }
          ],
          "internalType": "struct WorldNFT.Location",
          "name": "",
          "type": "tuple"
        }
      ],
      "stateMutability": "view",
      "type": "function"
    },
    {
      "inputs": [
        {
          "internalType": "uint256",
          "name": "tokenId",
          "type": "uint256"
        }
      ],
      "name": "getPriceOf",
      "outputs": [
        {
          "internalType": "uint256",
          "name": "",
          "type": "uint256"
        }
      ],
      "stateMutability": "view",
      "type": "function"
    },
    {
      "inputs": [
        {
          "internalType": "uint256",
          "name": "tokenId",
          "type": "uint256"
        }
      ],
      "name": "getOwnerOf",
      "outputs": [
        {
          "internalType": "address",
          "name": "",
          "type": "address"
        }
      ],
      "stateMutability": "view",
      "type": "function"
    },
    {
      "inputs": [
        {
          "internalType": "uint256",
          "name": "tokenId",
          "type": "uint256"
        }
      ],
      "name": "getAuctionInfo",
      "outputs": [
        {
          "components": [
            {
              "internalType": "uint256",
              "name": "tokenId",
              "type": "uint256"
            },
            {
              "internalType": "address",
              "name": "beneficiary",
              "type": "address"
            },
            {
              "internalType": "bool",
              "name": "auctionGoingOn",
              "type": "bool"
            },
            {
              "internalType": "bool",
              "name": "auctionEnded",
              "type": "bool"
            },
            {
              "internalType": "uint256",
              "name": "auctionEndTime",
              "type": "uint256"
            },
            {
              "internalType": "uint256",
              "name": "biddingTime",
              "type": "uint256"
            },
            {
              "internalType": "address",
              "name": "highestBidder",
              "type": "address"
            },
            {
              "internalType": "uint256",
              "name": "highestBid",
              "type": "uint256"
            },
            {
              "internalType": "bool",
              "name": "isExist",
              "type": "bool"
            }
          ],
          "internalType": "struct WorldNFT.Auction",
          "name": "",
          "type": "tuple"
        }
      ],
      "stateMutability": "view",
      "type": "function"
    },
    {
      "inputs": [
        {
          "internalType": "uint256",
          "name": "bidId",
          "type": "uint256"
        }
      ],
      "name": "getBiddingLog",
      "outputs": [
        {
          "components": [
            {
              "internalType": "uint256",
              "name": "tokenId",
              "type": "uint256"
            },
            {
              "internalType": "address",
              "name": "bidder",
              "type": "address"
            },
            {
              "internalType": "uint256",
              "name": "bidValue",
              "type": "uint256"
            },
            {
              "internalType": "uint256",
              "name": "timeBid",
              "type": "uint256"
            }
          ],
          "internalType": "struct WorldNFT.Bid",
          "name": "",
          "type": "tuple"
        }
      ],
      "stateMutability": "view",
      "type": "function"
    },
    {
      "inputs": [
        {
          "internalType": "uint256",
          "name": "tokenId",
          "type": "uint256"
        }
      ],
      "name": "getPendingReturnsCount",
      "outputs": [
        {
          "internalType": "uint256",
          "name": "",
          "type": "uint256"
        }
      ],
      "stateMutability": "view",
      "type": "function"
    },
    {
      "inputs": [
        {
          "internalType": "uint256",
          "name": "tokenId",
          "type": "uint256"
        },
        {
          "internalType": "address",
          "name": "addr",
          "type": "address"
        }
      ],
      "name": "getPendingReturnValue",
      "outputs": [
        {
          "internalType": "uint256",
          "name": "",
          "type": "uint256"
        }
      ],
      "stateMutability": "view",
      "type": "function"
    },
    {
      "inputs": [
        {
          "internalType": "string",
          "name": "location_name",
          "type": "string"
        },
        {
          "internalType": "string",
          "name": "svg_image",
          "type": "string"
        }
      ],
      "name": "mint",
      "outputs": [],
      "stateMutability": "nonpayable",
      "type": "function"
    },
    {
      "inputs": [
        {
          "internalType": "uint256",
          "name": "_tokenId",
          "type": "uint256"
        }
      ],
      "name": "buy",
      "outputs": [],
      "stateMutability": "payable",
      "type": "function"
    },
    {
      "inputs": [
        {
          "internalType": "uint256",
          "name": "_tokenId",
          "type": "uint256"
        },
        {
          "internalType": "uint256",
          "name": "_biddingTime",
          "type": "uint256"
        }
      ],
      "name": "startAuction",
      "outputs": [],
      "stateMutability": "nonpayable",
      "type": "function"
    },
    {
      "inputs": [
        {
          "internalType": "uint256",
          "name": "_tokenId",
          "type": "uint256"
        }
      ],
      "name": "endAuction",
      "outputs": [],
      "stateMutability": "nonpayable",
      "type": "function"
    },
    {
      "inputs": [
        {
          "internalType": "uint256",
          "name": "_tokenId",
          "type": "uint256"
        }
      ],
      "name": "placeBid",
      "outputs": [],
      "stateMutability": "payable",
      "type": "function"
    },
    {
      "inputs": [
        {
          "internalType": "uint256",
          "name": "_tokenId",
          "type": "uint256"
        }
      ],
      "name": "withdrawBid",
      "outputs": [],
      "stateMutability": "payable",
      "type": "function"
    },
    {
      "inputs": [
        {
          "internalType": "uint256",
          "name": "_tokenId",
          "type": "uint256"
        }
      ],
      "name": "increaseBid",
      "outputs": [],
      "stateMutability": "payable",
      "type": "function"
    }
  ],
  "bytecode": "0x60806040526000600b556000600c553480156200001b57600080fd5b50604080518082018252600881526715dbdc9b1913919560c21b6020808301919091528251808401909352600483526315d3919560e21b9083015290620000696301ffc9a760e01b6200012e565b81516200007e906006906020850190620001b7565b50805162000094906007906020840190620001b7565b50620000a76380ac58cd60e01b6200012e565b620000b9635b5e139f60e01b6200012e565b620000cb63780e9d6360e01b6200012e565b5060009050620000da620001b3565b600a80546001600160a01b0319166001600160a01b038316908117909155604051919250906000907f8be0079c531659141344cd1fd0a4f28419497f9722a3daafe3b4186f6b6457e0908290a35062000263565b6001600160e01b031980821614156200018e576040805162461bcd60e51b815260206004820152601c60248201527f4552433136353a20696e76616c696420696e7465726661636520696400000000604482015290519081900360640190fd5b6001600160e01b0319166000908152602081905260409020805460ff19166001179055565b3390565b828054600181600116156101000203166002900490600052602060002090601f016020900481019282620001ef57600085556200023a565b82601f106200020a57805160ff19168380011785556200023a565b828001600101855582156200023a579182015b828111156200023a5782518255916020019190600101906200021d565b50620002489291506200024c565b5090565b5b808211156200024857600081556001016200024d565b613a9e80620002736000396000f3fe6080604052600436106102195760003560e01c8063715018a611610123578063b88d4fde116100ab578063e985e9c51161006f578063e985e9c5146105eb578063f07571a01461060b578063f2fde38b1461062b578063f4812eb91461064b578063fc3fc4ed1461066b57610219565b8063b88d4fde1461054b578063b9a2de3a1461056b578063c1e037281461058b578063c87b56dd146105b8578063d96a094a146105d857610219565b806395d89b41116100f257806395d89b41146104b65780639979ef45146104cb578063a22cb465146104de578063ad81bd1c146104fe578063b54b4fb91461052b57610219565b8063715018a61461044c57806383638710146104615780638aa0fdad146104815780638da5cb5b146104a157610219565b80632f745c59116101a657806361b8ce8c1161017557806361b8ce8c146103c25780636352211e146103d75780636c0360eb146103f75780636f169aa01461040c57806370a082311461042c57610219565b80632f745c591461034257806342842e0e146103625780634f6ccce7146103825780634fee13fc146103a257610219565b8063081812fc116101ed578063081812fc146102ad578063095ea7b3146102da5780630eaaf4c8146102fa57806318160ddd1461030d57806323b872dd1461032257610219565b806270c5371461021e57806301ffc9a714610233578063067fa8fc1461026957806306fdde031461028b575b600080fd5b61023161022c366004613392565b610698565b005b34801561023f57600080fd5b5061025361024e366004613309565b61069b565b60405161026091906134b6565b60405180910390f35b34801561027557600080fd5b5061027e6106be565b60405161026091906137b9565b34801561029757600080fd5b506102a06106c4565b60405161026091906134c1565b3480156102b957600080fd5b506102cd6102c8366004613392565b61075a565b6040516102609190613465565b3480156102e657600080fd5b506102316102f53660046132de565b6107bc565b610231610308366004613392565b610892565b34801561031957600080fd5b5061027e610bf7565b34801561032e57600080fd5b5061023161033d3660046131f0565b610c08565b34801561034e57600080fd5b5061027e61035d3660046132de565b610c5f565b34801561036e57600080fd5b5061023161037d3660046131f0565b610c8a565b34801561038e57600080fd5b5061027e61039d366004613392565b610ca5565b3480156103ae57600080fd5b506102316103bd3660046133e6565b610cbb565b3480156103ce57600080fd5b5061027e610f14565b3480156103e357600080fd5b506102cd6103f2366004613392565b610f1a565b34801561040357600080fd5b506102a0610f42565b34801561041857600080fd5b5061027e6104273660046133c2565b610fa3565b34801561043857600080fd5b5061027e610447366004613180565b611042565b34801561045857600080fd5b506102316110aa565b34801561046d57600080fd5b506102cd61047c366004613392565b611168565b34801561048d57600080fd5b5061023161049c366004613331565b611173565b3480156104ad57600080fd5b506102cd611292565b3480156104c257600080fd5b506102a06112a1565b6102316104d9366004613392565b611302565b3480156104ea57600080fd5b506102316104f93660046132ad565b611568565b34801561050a57600080fd5b5061051e610519366004613392565b61166d565b6040516102609190613733565b34801561053757600080fd5b5061027e610546366004613392565b6116c3565b34801561055757600080fd5b50610231610566366004613230565b6116d5565b34801561057757600080fd5b50610231610586366004613392565b611733565b34801561059757600080fd5b506105ab6105a6366004613392565b611c55565b6040516102609190613767565b3480156105c457600080fd5b506102a06105d3366004613392565b611dbd565b6102316105e6366004613392565b61203e565b3480156105f757600080fd5b506102536106063660046131b8565b61211a565b34801561061757600080fd5b5061027e610626366004613392565b612148565b34801561063757600080fd5b50610231610646366004613180565b6121e4565b34801561065757600080fd5b5061027e610666366004613392565b6122f9565b34801561067757600080fd5b5061068b610686366004613392565b61230b565b60405161026091906136a4565b50565b6001600160e01b0319811660009081526020819052604090205460ff165b919050565b600c5481565b60068054604080516020601f60026000196101006001881615020190951694909404938401819004810282018101909252828152606093909290918301828280156107505780601f1061072557610100808354040283529160200191610750565b820191906000526020600020905b81548152906001019060200180831161073357829003601f168201915b5050505050905090565b6000610765826123ab565b6107a05760405162461bcd60e51b815260040180806020018281038252602c815260200180613993602c913960400191505060405180910390fd5b506000908152600460205260409020546001600160a01b031690565b60006107c782610f1a565b9050806001600160a01b0316836001600160a01b0316141561081a5760405162461bcd60e51b8152600401808060200182810382526021815260200180613a176021913960400191505060405180910390fd5b806001600160a01b031661082c6123b8565b6001600160a01b031614806108485750610848816106066123b8565b6108835760405162461bcd60e51b81526004018080602001828103825260388152602001806138e66038913960400191505060405180910390fd5b61088d83836123bc565b505050565b600061089d8261230b565b90508061010001516108ca5760405162461bcd60e51b81526004016108c1906135bb565b60405180910390fd5b600082815260116020526040812090805b604051636f59ec4b60e11b815273__IterableMapping_______________________9063deb3d896906109129086906004016137b9565b60206040518083038186803b15801561092a57600080fd5b505af415801561093e573d6000803e3d6000fd5b505050506040513d601f19601f8201168201806040525081019061096291906133aa565b811015610b26576040516368d54f3f60e11b815260009073__IterableMapping_______________________9063d1aa9e7e906109a590879086906004016137f8565b60206040518083038186803b1580156109bd57600080fd5b505af41580156109d1573d6000803e3d6000fd5b505050506040513d601f19601f820116820180604052508101906109f5919061319c565b90506000610a038783610fa3565b90508015610b1c576001600160a01b038216331415610afa576040516001600160a01b0383169082156108fc029083906000818181858888f19350505050158015610a52573d6000803e3d6000fd5b5060405163131836e760e21b815273__IterableMapping_______________________90634c60db9c90610a8c90889086906004016137c2565b60006040518083038186803b158015610aa457600080fd5b505af4158015610ab8573d6000803e3d6000fd5b505050507f03f0427e8bcfdf5f69217150cf160ebe2dac5fa607336fd7643bfd61a90190808282604051610aed929190613479565b60405180910390a1610b1c565b80841015610b1c5760e086018190526001600160a01b03821660c08701529250825b50506001016108db565b5080610b3b57600060e0840181905260c08401525b50506000918252600f602090815260409283902082518155908201516001820180549484015160608501511515600160a81b0260ff60a81b19911515600160a01b0260ff60a01b196001600160a01b039586166001600160a01b0319998a16171617919091161790556080830151600283015560a0830151600383015560c08301516004830180549190921694169390931790925560e0810151600583015561010001516006909101805491151560ff19909216919091179055565b6000610c03600261242a565b905090565b610c19610c136123b8565b82612435565b610c545760405162461bcd60e51b8152600401808060200182810382526031815260200180613a386031913960400191505060405180910390fd5b61088d8383836124d1565b6001600160a01b0382166000908152600160205260408120610c81908361261d565b90505b92915050565b61088d838383604051806020016040528060008152506116d5565b600080610cb3600284612629565b509392505050565b6000828152600d60205260409020600201544282019060ff16610cf05760405162461bcd60e51b81526004016108c1906134d4565b610cf983610f1a565b6001600160a01b0316336001600160a01b031614610d295760405162461bcd60e51b81526004016108c190613538565b6000838152600f602052604090206006015460ff168015610d6357506000838152600f6020526040902060010154600160a81b900460ff16155b15610d805760405162461bcd60e51b81526004016108c190613613565b604051806101200160405280848152602001336001600160a01b0316815260200160011515815260200160001515815260200182815260200183815260200160006001600160a01b031681526020016000815260200160011515815250600f60008581526020019081526020016000206000820151816000015560208201518160010160006101000a8154816001600160a01b0302191690836001600160a01b0316021790555060408201518160010160146101000a81548160ff02191690831515021790555060608201518160010160156101000a81548160ff0219169083151502179055506080820151816002015560a0820151816003015560c08201518160040160006101000a8154816001600160a01b0302191690836001600160a01b0316021790555060e082015181600501556101008201518160060160006101000a81548160ff0219169083151502179055509050507fc087c4cdb16906b5ff7016a6bf927618f24ff32eb1de5e86eeaeb08b94831a683383604051610f07929190613479565b60405180910390a1505050565b600b5481565b6000610c84826040518060600160405280602981526020016139486029913960029190612645565b60098054604080516020601f60026000196101006001881615020190951694909404938401819004810282018101909252828152606093909290918301828280156107505780601f1061072557610100808354040283529160200191610750565b600082815260116020526040808220905163732a2ccf60e01b815273__IterableMapping_______________________9063732a2ccf90610fea90849087906004016137c2565b60206040518083038186803b15801561100257600080fd5b505af4158015611016573d6000803e3d6000fd5b505050506040513d601f19601f8201168201806040525081019061103a91906133aa565b949350505050565b60006001600160a01b0382166110895760405162461bcd60e51b815260040180806020018281038252602a81526020018061391e602a913960400191505060405180910390fd5b6001600160a01b0382166000908152600160205260409020610c849061242a565b6110b26123b8565b6001600160a01b03166110c3611292565b6001600160a01b03161461111e576040805162461bcd60e51b815260206004820181905260248201527f4f776e61626c653a2063616c6c6572206973206e6f7420746865206f776e6572604482015290519081900360640190fd5b600a546040516000916001600160a01b0316907f8be0079c531659141344cd1fd0a4f28419497f9722a3daafe3b4186f6b6457e0908390a3600a80546001600160a01b0319169055565b6000610c8482610f1a565b61117b6123b8565b6001600160a01b031661118c611292565b6001600160a01b0316146111e7576040805162461bcd60e51b815260206004820181905260248201527f4f776e61626c653a2063616c6c6572206973206e6f7420746865206f776e6572604482015290519081900360640190fd5b604080516060810182528381526020808201849052600182840152600b546000908152600d82529290922081518051929391926112279284920190612fbc565b5060208281015180516112409260018501920190612fbc565b50604091820151600291909101805460ff1916911515919091179055600b80546000908152600e60205291909120671bc16d674ec80000905554611285903390612652565b5050600b80546001019055565b600a546001600160a01b031690565b60078054604080516020601f60026000196101006001881615020190951694909404938401819004810282018101909252828152606093909290918301828280156107505780601f1061072557610100808354040283529160200191610750565b600061130d8261230b565b90508061010001516113315760405162461bcd60e51b81526004016108c1906135bb565b6000828152600e6020526040902054341161135e5760405162461bcd60e51b81526004016108c190613584565b8060e0015134116113815760405162461bcd60e51b81526004016108c190613679565b3460e082018181523360c084018181526000868152600f602090815260408083208851815582890151600182018054848c015160608d01511515600160a81b0260ff60a81b19911515600160a01b0260ff60a01b196001600160a01b039687166001600160a01b0319958616171617919091161790915560808b0151600284015560a08b015160038401559551600480840180549290931691909716179055955160058701556101008801516006909601805496151560ff1990971696909617909555601190528390209251632f0ad01760e21b8152929373__IterableMapping_______________________9363bc2b405c936114839387939192016137d9565b60006040518083038186803b15801561149b57600080fd5b505af41580156114af573d6000803e3d6000fd5b505050507fde11ebd9a4f52f9d475e408266bfa5a8a50ebd212fd91bc37f6b438b7aaa6ad533346040516114e4929190613479565b60405180910390a1505060408051608081018252918252336020808401918252348484019081524260608601908152600c80546000908152601090945294909220945185559151600180860180546001600160a01b0319166001600160a01b0390931692909217909155915160028501555160039093019290925580549091019055565b6115706123b8565b6001600160a01b0316826001600160a01b031614156115d6576040805162461bcd60e51b815260206004820152601960248201527f4552433732313a20617070726f766520746f2063616c6c657200000000000000604482015290519081900360640190fd5b80600560006115e36123b8565b6001600160a01b03908116825260208083019390935260409182016000908120918716808252919093529120805460ff1916921515929092179091556116276123b8565b6001600160a01b03167f17307eab39ab6107e8899845ad3d59bd9653f200f220920489ca2b5937696c318360405180821515815260200191505060405180910390a35050565b611675613048565b5060009081526010602090815260409182902082516080810184528154815260018201546001600160a01b031692810192909252600281015492820192909252600390910154606082015290565b6000908152600e602052604090205490565b6116e66116e06123b8565b83612435565b6117215760405162461bcd60e51b8152600401808060200182810382526031815260200180613a386031913960400191505060405180910390fd5b61172d84848484612670565b50505050565b600061173e8261230b565b90508061010001516117625760405162461bcd60e51b81526004016108c1906135bb565b80608001514210156117865760405162461bcd60e51b81526004016108c190613613565b8060600151156117a85760405162461bcd60e51b81526004016108c19061364a565b600082815260116020526040902060e08201516118c55760016060830181815260006040808601828152878352600f60209081529282902087518155928701519483018054915194511515600160a81b0260ff60a81b19951515600160a01b0260ff60a01b196001600160a01b039889166001600160a01b031995861617161795909516949094179093556080860151600283015560a0860151600383015560c0860151600483018054958216959094169490941790925560e0850151600582018190556101008601516006909201805492151560ff199093169290921790915590517fdaec4582d5d9595688c8c98545fdd1c696d41c6aeaeb636737e84ed2f5c00eda926118b8929091613479565b60405180910390a1611aa8565b6001606083015260006040808401829052602084015160e085015191516001600160a01b039091169282156108fc02929190818181858888f19350505050158015611914573d6000803e3d6000fd5b5061192882602001518360c00151856124d1565b60c0820180516001600160a01b0390811660208086019182526000878152600f82526040808220885181559351600185018054838b015160608c01511515600160a81b0260ff60a81b19911515600160a01b0260ff60a01b19958b166001600160a01b0319948516179590951694909417169290921790556080890151600286015560a0890151600386015586516004808701805492909816919092161790955560e0880151600585018190556101008901516006909501805495151560ff1990961695909517909455600e9092528181209290925592519251632f0ad01760e21b815273__IterableMapping_______________________9363bc2b405c93611a369387939091016137d9565b60006040518083038186803b158015611a4e57600080fd5b505af4158015611a62573d6000803e3d6000fd5b505050507fdaec4582d5d9595688c8c98545fdd1c696d41c6aeaeb636737e84ed2f5c00eda8260c001518360e00151604051611a9f929190613479565b60405180910390a15b60005b604051636f59ec4b60e11b815273__IterableMapping_______________________9063deb3d89690611ae29085906004016137b9565b60206040518083038186803b158015611afa57600080fd5b505af4158015611b0e573d6000803e3d6000fd5b505050506040513d601f19601f82011682018060405250810190611b3291906133aa565b81101561172d576040516368d54f3f60e11b815260009073__IterableMapping_______________________9063d1aa9e7e90611b7590869086906004016137f8565b60206040518083038186803b158015611b8d57600080fd5b505af4158015611ba1573d6000803e3d6000fd5b505050506040513d601f19601f82011682018060405250810190611bc5919061319c565b90506000611bd38683610fa3565b90508015611c4b576040516001600160a01b0383169082156108fc029083906000818181858888f19350505050158015611c11573d6000803e3d6000fd5b507e363fe256a1f2c23b39e0cfe65d691c725e83e534d368d718337b9d46b705ae8282604051611c42929190613479565b60405180910390a15b5050600101611aab565b611c5d613079565b6000828152600d60209081526040918290208251815460026001821615610100026000190190911604601f81018490049093028101608090810190945260608101838152909391928492849190840182828015611cfb5780601f10611cd057610100808354040283529160200191611cfb565b820191906000526020600020905b815481529060010190602001808311611cde57829003601f168201915b50505050508152602001600182018054600181600116156101000203166002900480601f016020809104026020016040519081016040528092919081815260200182805460018160011615610100020316600290048015611d9d5780601f10611d7257610100808354040283529160200191611d9d565b820191906000526020600020905b815481529060010190602001808311611d8057829003601f168201915b50505091835250506002919091015460ff16151560209091015292915050565b6060611dc8826123ab565b611e035760405162461bcd60e51b815260040180806020018281038252602f8152602001806139e8602f913960400191505060405180910390fd5b60008281526008602090815260408083208054825160026001831615610100026000190190921691909104601f810185900485028201850190935282815292909190830182828015611e965780601f10611e6b57610100808354040283529160200191611e96565b820191906000526020600020905b815481529060010190602001808311611e7957829003601f168201915b505050505090506000611ea7610f42565b9050805160001415611ebb575090506106b9565b815115611f7c5780826040516020018083805190602001908083835b60208310611ef65780518252601f199092019160209182019101611ed7565b51815160209384036101000a600019018019909216911617905285519190930192850191508083835b60208310611f3e5780518252601f199092019160209182019101611f1f565b6001836020036101000a03801982511681845116808217855250505050505090500192505050604051602081830303815290604052925050506106b9565b80611f86856126c2565b6040516020018083805190602001908083835b60208310611fb85780518252601f199092019160209182019101611f99565b51815160209384036101000a600019018019909216911617905285519190930192850191508083835b602083106120005780518252601f199092019160209182019101611fe1565b6001836020036101000a0380198251168184511680821785525050505050509050019250505060405160208183030381529060405292505050919050565b6000818152600e60205260409020548061206a5760405162461bcd60e51b81526004016108c190613501565b8034146120895760405162461bcd60e51b81526004016108c1906135ea565b600061209483610f1a565b90506120a18133856124d1565b6000838152600e6020526040808220829055516001600160a01b038316913480156108fc02929091818181858888f193505050501580156120e6573d6000803e3d6000fd5b507f608f6ac9327c2bf4d3c77adf447d2c448ba7b0971e0aaa9aa03f7ac29d874a44813334604051610f0793929190613492565b6001600160a01b03918216600090815260056020908152604080832093909416825291909152205460ff1690565b6000818152601160205260408082209051636f59ec4b60e11b815273__IterableMapping_______________________9063deb3d8969061218d9084906004016137b9565b60206040518083038186803b1580156121a557600080fd5b505af41580156121b9573d6000803e3d6000fd5b505050506040513d601f19601f820116820180604052508101906121dd91906133aa565b9392505050565b6121ec6123b8565b6001600160a01b03166121fd611292565b6001600160a01b031614612258576040805162461bcd60e51b815260206004820181905260248201527f4f776e61626c653a2063616c6c6572206973206e6f7420746865206f776e6572604482015290519081900360640190fd5b6001600160a01b03811661229d5760405162461bcd60e51b81526004018080602001828103825260268152602001806138706026913960400191505060405180910390fd5b600a546040516001600160a01b038084169216907f8be0079c531659141344cd1fd0a4f28419497f9722a3daafe3b4186f6b6457e090600090a3600a80546001600160a01b0319166001600160a01b0392909216919091179055565b600e6020526000908152604090205481565b61231361309c565b506000908152600f60209081526040918290208251610120810184528154815260018201546001600160a01b038082169483019490945260ff600160a01b82048116151595830195909552600160a81b900484161515606082015260028201546080820152600382015460a0820152600482015490921660c0830152600581015460e083015260060154909116151561010082015290565b6000610c8460028361279d565b3390565b600081815260046020526040902080546001600160a01b0319166001600160a01b03841690811790915581906123f182610f1a565b6001600160a01b03167f8c5be1e5ebec7d5bd14f71427d1e84f3dd0314c0f7b2291e5b200ac8c7c3b92560405160405180910390a45050565b6000610c84826127a9565b6000612440826123ab565b61247b5760405162461bcd60e51b815260040180806020018281038252602c8152602001806138ba602c913960400191505060405180910390fd5b600061248683610f1a565b9050806001600160a01b0316846001600160a01b031614806124c15750836001600160a01b03166124b68461075a565b6001600160a01b0316145b8061103a575061103a818561211a565b826001600160a01b03166124e482610f1a565b6001600160a01b0316146125295760405162461bcd60e51b81526004018080602001828103825260298152602001806139bf6029913960400191505060405180910390fd5b6001600160a01b03821661256e5760405162461bcd60e51b81526004018080602001828103825260248152602001806138966024913960400191505060405180910390fd5b61257983838361088d565b6125846000826123bc565b6001600160a01b03831660009081526001602052604090206125a690826127ad565b506001600160a01b03821660009081526001602052604090206125c990826127b9565b506125d6600282846127c5565b5080826001600160a01b0316846001600160a01b03167fddf252ad1be2c89b69c2b068fc378daa952ba7f163c4a11628f55a4df523b3ef60405160405180910390a4505050565b6000610c8183836127db565b6000808080612638868661283f565b9097909650945050505050565b600061103a8484846128ba565b61266c828260405180602001604052806000815250612984565b5050565b61267b8484846124d1565b612687848484846129d6565b61172d5760405162461bcd60e51b815260040180806020018281038252603281526020018061383e6032913960400191505060405180910390fd5b6060816126e757506040805180820190915260018152600360fc1b60208201526106b9565b8160005b81156126ff57600101600a820491506126eb565b60008167ffffffffffffffff8111801561271857600080fd5b506040519080825280601f01601f191660200182016040528015612743576020820181803683370190505b50859350905060001982015b831561279457600a840660300160f81b8282806001900393508151811061277257fe5b60200101906001600160f81b031916908160001a905350600a8404935061274f565b50949350505050565b6000610c818383612b3e565b5490565b6000610c818383612b56565b6000610c818383612c1c565b600061103a84846001600160a01b038516612c66565b8154600090821061281d5760405162461bcd60e51b815260040180806020018281038252602281526020018061381c6022913960400191505060405180910390fd5b82600001828154811061282c57fe5b9060005260206000200154905092915050565b8154600090819083106128835760405162461bcd60e51b81526004018080602001828103825260228152602001806139716022913960400191505060405180910390fd5b600084600001848154811061289457fe5b906000526020600020906002020190508060000154816001015492509250509250929050565b600082815260018401602052604081205482816129555760405162461bcd60e51b81526004018080602001828103825283818151815260200191508051906020019080838360005b8381101561291a578181015183820152602001612902565b50505050905090810190601f1680156129475780820380516001836020036101000a031916815260200191505b509250505060405180910390fd5b5084600001600182038154811061296857fe5b9060005260206000209060020201600101549150509392505050565b61298e8383612cfd565b61299b60008484846129d6565b61088d5760405162461bcd60e51b815260040180806020018281038252603281526020018061383e6032913960400191505060405180910390fd5b60006129ea846001600160a01b0316612e2b565b6129f65750600161103a565b6000612b04630a85bd0160e11b612a0b6123b8565b88878760405160240180856001600160a01b03168152602001846001600160a01b0316815260200183815260200180602001828103825283818151815260200191508051906020019080838360005b83811015612a72578181015183820152602001612a5a565b50505050905090810190601f168015612a9f5780820380516001836020036101000a031916815260200191505b5095505050505050604051602081830303815290604052906001600160e01b0319166020820180516001600160e01b03838183161783525050505060405180606001604052806032815260200161383e603291396001600160a01b0388169190612e31565b90506000818060200190516020811015612b1d57600080fd5b50516001600160e01b031916630a85bd0160e11b1492505050949350505050565b60009081526001919091016020526040902054151590565b60008181526001830160205260408120548015612c125783546000198083019190810190600090879083908110612b8957fe5b9060005260206000200154905080876000018481548110612ba657fe5b600091825260208083209091019290925582815260018981019092526040902090840190558654879080612bd657fe5b60019003818190600052602060002001600090559055866001016000878152602001908152602001600020600090556001945050505050610c84565b6000915050610c84565b6000612c288383612b3e565b612c5e57508154600181810184556000848152602080822090930184905584548482528286019093526040902091909155610c84565b506000610c84565b600082815260018401602052604081205480612ccb5750506040805180820182528381526020808201848152865460018181018955600089815284812095516002909302909501918255915190820155865486845281880190925292909120556121dd565b82856000016001830381548110612cde57fe5b90600052602060002090600202016001018190555060009150506121dd565b6001600160a01b038216612d58576040805162461bcd60e51b815260206004820181905260248201527f4552433732313a206d696e7420746f20746865207a65726f2061646472657373604482015290519081900360640190fd5b612d61816123ab565b15612db3576040805162461bcd60e51b815260206004820152601c60248201527f4552433732313a20746f6b656e20616c7265616479206d696e74656400000000604482015290519081900360640190fd5b612dbf6000838361088d565b6001600160a01b0382166000908152600160205260409020612de190826127b9565b50612dee600282846127c5565b5060405181906001600160a01b038416906000907fddf252ad1be2c89b69c2b068fc378daa952ba7f163c4a11628f55a4df523b3ef908290a45050565b3b151590565b606061103a848460008585612e4585612e2b565b612e96576040805162461bcd60e51b815260206004820152601d60248201527f416464726573733a2063616c6c20746f206e6f6e2d636f6e7472616374000000604482015290519081900360640190fd5b600080866001600160a01b031685876040518082805190602001908083835b60208310612ed45780518252601f199092019160209182019101612eb5565b6001836020036101000a03801982511681845116808217855250505050505090500191505060006040518083038185875af1925050503d8060008114612f36576040519150601f19603f3d011682016040523d82523d6000602084013e612f3b565b606091505b5091509150612f4b828286612f56565b979650505050505050565b60608315612f655750816121dd565b825115612f755782518084602001fd5b60405162461bcd60e51b815260206004820181815284516024840152845185939192839260440191908501908083836000831561291a578181015183820152602001612902565b828054600181600116156101000203166002900490600052602060002090601f016020900481019282612ff25760008555613038565b82601f1061300b57805160ff1916838001178555613038565b82800160010185558215613038579182015b8281111561303857825182559160200191906001019061301d565b506130449291506130e8565b5090565b60405180608001604052806000815260200160006001600160a01b0316815260200160008152602001600081525090565b604051806060016040528060608152602001606081526020016000151581525090565b6040805161012081018252600080825260208201819052918101829052606081018290526080810182905260a0810182905260c0810182905260e0810182905261010081019190915290565b5b8082111561304457600081556001016130e9565b600067ffffffffffffffff8084111561311257fe5b604051601f8501601f19168101602001828111828210171561313057fe5b60405284815291508183850186101561314857600080fd5b8484602083013760006020868301015250509392505050565b600082601f830112613171578081fd5b610c81838335602085016130fd565b600060208284031215613191578081fd5b81356121dd81613806565b6000602082840312156131ad578081fd5b81516121dd81613806565b600080604083850312156131ca578081fd5b82356131d581613806565b915060208301356131e581613806565b809150509250929050565b600080600060608486031215613204578081fd5b833561320f81613806565b9250602084013561321f81613806565b929592945050506040919091013590565b60008060008060808587031215613245578081fd5b843561325081613806565b9350602085013561326081613806565b925060408501359150606085013567ffffffffffffffff811115613282578182fd5b8501601f81018713613292578182fd5b6132a1878235602084016130fd565b91505092959194509250565b600080604083850312156132bf578182fd5b82356132ca81613806565b9150602083013580151581146131e5578182fd5b600080604083850312156132f0578182fd5b82356132fb81613806565b946020939093013593505050565b60006020828403121561331a578081fd5b81356001600160e01b0319811681146121dd578182fd5b60008060408385031215613343578182fd5b823567ffffffffffffffff8082111561335a578384fd5b61336686838701613161565b9350602085013591508082111561337b578283fd5b5061338885828601613161565b9150509250929050565b6000602082840312156133a3578081fd5b5035919050565b6000602082840312156133bb578081fd5b5051919050565b600080604083850312156133d4578182fd5b8235915060208301356131e581613806565b600080604083850312156133f8578182fd5b50508035926020909101359150565b6001600160a01b03169052565b15159052565b60008151808452815b8181101561343f57602081850181015186830182015201613423565b818111156134505782602083870101525b50601f01601f19169290920160200192915050565b6001600160a01b0391909116815260200190565b6001600160a01b03929092168252602082015260400190565b6001600160a01b039384168152919092166020820152604081019190915260600190565b901515815260200190565b600060208252610c81602083018461341a565b602080825260139082015272151bdad95b88191bd95cdb89dd08195e1a5cdd606a1b604082015260600190565b6020808252601a908201527f5468697320746f6b656e206973206e6f7420666f722073616c65000000000000604082015260600190565b6020808252602c908201527f43616e6e6f742073746172742061756374696f6e20666f7220746f6b656e207960408201526b37ba903237b713ba1037bbb760a11b606082015260800190565b60208082526018908201527f426964207072696365206d757374206265206869676865720000000000000000604082015260600190565b602080825260159082015274105d58dd1a5bdb88191bd95cdb89dd08195e1a5cdd605a1b604082015260600190565b6020808252600f908201526e496e636f72726563742076616c756560881b604082015260600190565b6020808252601d908201527f5468652061756374696f6e20686173206e6f7420656e64656420796574000000604082015260600190565b602080825260159082015274151a1948185d58dd1a5bdb881a185cc8195b991959605a1b604082015260600190565b602080825260119082015270486967686572206269642065786973747360781b604082015260600190565b815181526020808301516001600160a01b0316908201526040808301516101208301916136d390840182613414565b5060608301516136e66060840182613414565b506080830151608083015260a083015160a083015260c083015161370d60c0840182613407565b5060e083015160e08301526101008084015161372b82850182613414565b505092915050565b815181526020808301516001600160a01b031690820152604080830151908201526060918201519181019190915260800190565b600060208252825160606020840152613783608084018261341a565b90506020840151601f198483030160408501526137a0828261341a565b9150506040840151151560608401528091505092915050565b90815260200190565b9182526001600160a01b0316602082015260400190565b9283526001600160a01b03919091166020830152604082015260600190565b918252602082015260400190565b6001600160a01b038116811461069857600080fdfe456e756d657261626c655365743a20696e646578206f7574206f6620626f756e64734552433732313a207472616e7366657220746f206e6f6e20455243373231526563656976657220696d706c656d656e7465724f776e61626c653a206e6577206f776e657220697320746865207a65726f20616464726573734552433732313a207472616e7366657220746f20746865207a65726f20616464726573734552433732313a206f70657261746f7220717565727920666f72206e6f6e6578697374656e7420746f6b656e4552433732313a20617070726f76652063616c6c6572206973206e6f74206f776e6572206e6f7220617070726f76656420666f7220616c6c4552433732313a2062616c616e636520717565727920666f7220746865207a65726f20616464726573734552433732313a206f776e657220717565727920666f72206e6f6e6578697374656e7420746f6b656e456e756d657261626c654d61703a20696e646578206f7574206f6620626f756e64734552433732313a20617070726f76656420717565727920666f72206e6f6e6578697374656e7420746f6b656e4552433732313a207472616e73666572206f6620746f6b656e2074686174206973206e6f74206f776e4552433732314d657461646174613a2055524920717565727920666f72206e6f6e6578697374656e7420746f6b656e4552433732313a20617070726f76616c20746f2063757272656e74206f776e65724552433732313a207472616e736665722063616c6c6572206973206e6f74206f776e6572206e6f7220617070726f766564a26469706673582212200170eb2779a2f7ce3df619d811b9cf0e1a2c9a8ced95d9de9c7ddfa9e091ded064736f6c63430007060033",
  "immutableReferences": {},
  "source": "pragma solidity >=0.4.22 <0.8.0;\r\npragma experimental ABIEncoderV2;\r\n\r\nimport \"@openzeppelin/contracts/token/ERC721/ERC721.sol\";\r\nimport \"@openzeppelin/contracts/access/Ownable.sol\";\r\n\r\nlibrary IterableMapping {\r\n    // Iterable mapping from address to uint;\r\n    struct Map {\r\n        address[] keys;\r\n        mapping(address => uint) values;\r\n        mapping(address => uint) indexOf;\r\n        mapping(address => bool) inserted;\r\n    }\r\n\r\n    function get(Map storage map, address key) public view returns (uint) {\r\n        return map.values[key];\r\n    }\r\n\r\n    function getKeyAtIndex(Map storage map, uint index) public view returns (address) {\r\n        return map.keys[index];\r\n    }\r\n\r\n    function size(Map storage map) public view returns (uint) {\r\n        return map.keys.length;\r\n    }\r\n\r\n    function set(Map storage map, address key, uint val) public {\r\n        if (map.inserted[key]) {\r\n            map.values[key] = val;\r\n        } else {\r\n            map.inserted[key] = true;\r\n            map.values[key] = val;\r\n            map.indexOf[key] = map.keys.length;\r\n            map.keys.push(key);\r\n        }\r\n    }\r\n\r\n    function remove(Map storage map, address key) public {\r\n        if (!map.inserted[key]) {\r\n            return;\r\n        }\r\n\r\n        delete map.inserted[key];\r\n        delete map.values[key];\r\n\r\n        uint index = map.indexOf[key];\r\n        uint lastIndex = map.keys.length - 1;\r\n        address lastKey = map.keys[lastIndex];\r\n\r\n        map.indexOf[lastKey] = index;\r\n        delete map.indexOf[key];\r\n\r\n        map.keys[index] = lastKey;\r\n        map.keys.pop();\r\n    }\r\n}\r\n\r\ncontract WorldNFT is ERC721, Ownable {\r\n\tusing IterableMapping for IterableMapping.Map;\r\n\tconstructor() ERC721(\"WorldNFT\", \"WNFT\") public {\r\n\r\n\t}\r\n\r\n\tstruct Location {\r\n\t\tstring location_name;\r\n\t\tstring svg_image;\r\n\t\tbool isExist;\r\n\t}\r\n\tstruct Auction {\r\n\t    uint256 tokenId;\r\n\t    address beneficiary;\r\n\t    bool auctionGoingOn;\r\n\t\tbool auctionEnded;\r\n\t    uint auctionEndTime;\r\n\t\tuint biddingTime;\r\n\t    address highestBidder;\r\n\t    uint highestBid;\r\n\t    bool isExist;\r\n\t}\r\n\tstruct Bid {\r\n\t\tuint256 tokenId;\r\n\t\taddress bidder;\r\n\t\tuint bidValue;\r\n\t\tuint timeBid;\r\n\t}\r\n\r\n\tuint public nextId = 0;\r\n\tuint public acceptedBidsIdx = 0;\r\n\r\n\tevent NftBought(address _seller, address _buyer, uint256 _price);\r\n\tevent AuctionStarted(address ownerAddress, uint _biddingTime);\r\n\tevent BidIncrease(address bidAddress, uint256 bidValue);\r\n\tevent AuctionEnded(address bidAddress, uint256 bidValue);\r\n\tevent BidRejected(address bidAddress, uint256 bidValue);\r\n\tevent BidWithdrawn(address bidAddress, uint256 bidValue);\r\n\r\n\tmapping(uint256 => Location) private _locationDetails;\r\n\tmapping(uint256 => uint256) public tokenIdToPrice;\r\n\tmapping(uint256 => Auction) private _auctions;\r\n\tmapping(uint256 => Bid) private _biddingLogs;\r\n\r\n\t// IterableMapping.Map private _pendingReturns;\r\n\tmapping(uint256 => IterableMapping.Map) private _tokenPendingReturns;\r\n\r\n\tfunction getTokenDetails(uint256 tokenId) public view returns (Location memory) {\r\n\t\treturn _locationDetails[tokenId];\r\n\t}\r\n\r\n\tfunction getPriceOf(uint256 tokenId) public view returns (uint256) {\r\n\t\treturn tokenIdToPrice[tokenId];\r\n\t}\r\n\r\n\tfunction getOwnerOf(uint256 tokenId) public view returns (address){\r\n\t\treturn ownerOf(tokenId);\r\n\t}\r\n\r\n\tfunction getAuctionInfo(uint256 tokenId) public view returns(Auction memory) {\r\n\t    return _auctions[tokenId];\r\n\t}\r\n\r\n\tfunction getBiddingLog(uint256 bidId) public view returns(Bid memory) {\r\n\t\treturn _biddingLogs[bidId];\r\n\t}\r\n\r\n\tfunction getPendingReturnsCount(uint tokenId) public view returns(uint) {\r\n\t    IterableMapping.Map storage pendingReturnForIdx = _tokenPendingReturns[tokenId];\r\n\t\treturn pendingReturnForIdx.size();\r\n\t}\r\n\r\n\tfunction getPendingReturnValue(uint tokenId, address addr) public view returns(uint) {\r\n\t    IterableMapping.Map storage pendingReturnForIdx = _tokenPendingReturns[tokenId];\r\n\t    return pendingReturnForIdx.get(addr);\r\n\t}\r\n\r\n\tfunction mint(string memory location_name, string memory svg_image) public onlyOwner {\r\n\t\t_locationDetails[nextId] = Location(location_name, svg_image, true);\r\n\t\ttokenIdToPrice[nextId] = 2000000000000000000; //1 ONE=1e18 wei\r\n\t\t_safeMint(msg.sender, nextId);\r\n\t\tnextId++;\r\n\t}\r\n\r\n\tfunction buy(uint256 _tokenId) external payable {\r\n\t\tuint256 price = tokenIdToPrice[_tokenId];\r\n\t\trequire(price > 0, \"This token is not for sale\");\r\n\t\trequire(msg.value == price, 'Incorrect value');\r\n\t\taddress seller = ownerOf(_tokenId);\r\n\t\t_transfer(seller, msg.sender, _tokenId);\r\n\t\ttokenIdToPrice[_tokenId] = 0;\r\n\t\tpayable(seller).transfer(msg.value);\r\n\t\temit NftBought(seller, msg.sender, msg.value);\r\n\t}\r\n\r\n\tfunction startAuction(uint256 _tokenId, uint _biddingTime) external {\r\n\t\tuint auctionEndTime = block.timestamp + _biddingTime;\r\n\t\trequire(_locationDetails[_tokenId].isExist, \"Token doesn't exist\");\r\n\t\trequire(msg.sender == ownerOf(_tokenId), \"Cannot start auction for token you don't own\");\r\n\t\tif(_auctions[_tokenId].isExist && !_auctions[_tokenId].auctionEnded) {\r\n\t\t\trevert (\"The auction has not ended yet\");\r\n\t\t}\r\n\t\t_auctions[_tokenId] = Auction(_tokenId,msg.sender,true,false,auctionEndTime,_biddingTime,address(0x0),0,true);\r\n\t\temit AuctionStarted(msg.sender, _biddingTime);\r\n\t}\r\n\r\n\r\n\tfunction endAuction(uint256 _tokenId) external {\r\n\t    Auction memory auc = getAuctionInfo(_tokenId);\r\n\t    require(auc.isExist, \"Auction doesn't exist\");\r\n\t    if(block.timestamp < auc.auctionEndTime) {\r\n\t        revert (\"The auction has not ended yet\");\r\n\t    }\r\n\t    if(auc.auctionEnded) {\r\n\t        revert (\"The auction has ended\");\r\n\t    }\r\n\t\tIterableMapping.Map storage pr = _tokenPendingReturns[_tokenId];\r\n\t\tif(auc.highestBid == 0) {\r\n\t\t\tauc.auctionEnded = true;\r\n\t    \tauc.auctionGoingOn = false;\r\n\t\t\t_auctions[_tokenId] = auc;\r\n\t\t\temit AuctionEnded(auc.highestBidder, auc.highestBid);\r\n\t\t} else {\r\n\t\t\tauc.auctionEnded = true;\r\n\t\t\tauc.auctionGoingOn = false;\r\n\t\t\tpayable(auc.beneficiary).transfer(auc.highestBid);\r\n\t\t\t_transfer(auc.beneficiary, auc.highestBidder, _tokenId);\r\n\t\t\tauc.beneficiary = auc.highestBidder;\r\n\t\t\t_auctions[_tokenId] = auc;\r\n\t\t\ttokenIdToPrice[_tokenId] = auc.highestBid;\r\n\t\t\tpr.set(auc.highestBidder, 0);\r\n\t\t\temit AuctionEnded(auc.highestBidder, auc.highestBid);\r\n\t\t}\r\n\t\t\r\n\t\tfor (uint i = 0; i < pr.size(); i++) {\r\n\t\t\taddress returnAddr = pr.getKeyAtIndex(i);\r\n\t\t\tuint returnVal = getPendingReturnValue(_tokenId, returnAddr);\r\n\t\t\tif(returnVal > 0) {\r\n\t\t\t\tpayable(returnAddr).transfer(returnVal);\r\n\t\t\t\temit BidRejected(returnAddr, returnVal);\r\n\t\t\t}\r\n\t\t}\r\n\t}\r\n\r\n\tfunction placeBid(uint256 _tokenId) external payable {\r\n\t\tAuction memory auc = getAuctionInfo(_tokenId);\r\n\t    require(auc.isExist, \"Auction doesn't exist\");\r\n\t\trequire(msg.value > tokenIdToPrice[_tokenId], \"Bid price must be higher\");\r\n\t\tif(msg.value <= auc.highestBid) {\r\n\t        revert(\"Higher bid exists\");\r\n\t    }\r\n\t\tauc.highestBid = msg.value;\r\n\t    auc.highestBidder = msg.sender;\r\n\t    _auctions[_tokenId] = auc;\r\n\t\tIterableMapping.Map storage pr = _tokenPendingReturns[_tokenId];\r\n        pr.set(msg.sender, msg.value);\r\n\t\temit BidIncrease(msg.sender, msg.value);\r\n\r\n\t\t//Log bid into bidHistory\r\n\t\t_biddingLogs[acceptedBidsIdx] = Bid(_tokenId, msg.sender, msg.value, block.timestamp);\r\n\t\tacceptedBidsIdx++;\r\n\t}\r\n\r\n\tfunction withdrawBid(uint256 _tokenId) external payable {\r\n\t\tAuction memory auc = getAuctionInfo(_tokenId);\r\n\t    require(auc.isExist, \"Auction doesn't exist\");\r\n\t\tIterableMapping.Map storage pr = _tokenPendingReturns[_tokenId];\r\n\t\tuint nextHighestBid = 0;\r\n\t\tfor (uint i = 0; i < pr.size(); i++) {\r\n\t\t\taddress returnAddr = pr.getKeyAtIndex(i);\r\n\t\t\tuint returnVal = getPendingReturnValue(_tokenId, returnAddr);\r\n\t\t\tif(returnVal > 0) {\r\n\t\t\t\tif(returnAddr == msg.sender) {\r\n\t\t\t\t\tpayable(returnAddr).transfer(returnVal);\r\n\t\t\t\t\tpr.remove(returnAddr);\r\n\t\t\t\t\temit BidWithdrawn(returnAddr, returnVal);\r\n\t\t\t\t} else {\r\n\t\t\t\t\tif(nextHighestBid < returnVal) {\r\n\t\t\t\t\t\tauc.highestBid = returnVal;\r\n\t    \t\t\t\tauc.highestBidder = returnAddr;\r\n\t\t\t\t\t\tnextHighestBid = returnVal;\r\n\t\t\t\t\t}\r\n\t\t\t\t}\r\n\t\t\t}\r\n\t\t}\r\n\t\tif(nextHighestBid == 0) {\r\n\t\t\tauc.highestBid = 0;\r\n\t\t\tauc.highestBidder = address(0);\r\n\t\t}\r\n\t\t//set highest bid as the next highest\r\n\t\t_auctions[_tokenId] = auc;\r\n\t}\r\n\r\n\tfunction increaseBid(uint256 _tokenId) external payable {\r\n\r\n\t}\r\n\r\n\tfunction _beforeTokenTransfer(address from, address to, uint256 tokenId) internal override { \r\n\t\t\r\n\t}\r\n}",
  "sourcePath": "C:\\development\\luv-nft-estate\\truffle\\contracts\\WorldNFT.sol",
  "compiler": {
    "name": "solc",
    "version": "0.7.6+commit.7338295f.Emscripten.clang"
  },
  "schemaVersion": "3.4.4",
  "updatedAt": "2022-02-19T10:56:30.658Z",
  "devdoc": {
    "kind": "dev",
    "methods": {
      "approve(address,uint256)": {
        "details": "See {IERC721-approve}."
      },
      "balanceOf(address)": {
        "details": "See {IERC721-balanceOf}."
      },
      "baseURI()": {
        "details": "Returns the base URI set via {_setBaseURI}. This will be automatically added as a prefix in {tokenURI} to each token's URI, or to the token ID if no specific URI is set for that token ID."
      },
      "getApproved(uint256)": {
        "details": "See {IERC721-getApproved}."
      },
      "isApprovedForAll(address,address)": {
        "details": "See {IERC721-isApprovedForAll}."
      },
      "name()": {
        "details": "See {IERC721Metadata-name}."
      },
      "owner()": {
        "details": "Returns the address of the current owner."
      },
      "ownerOf(uint256)": {
        "details": "See {IERC721-ownerOf}."
      },
      "renounceOwnership()": {
        "details": "Leaves the contract without owner. It will not be possible to call `onlyOwner` functions anymore. Can only be called by the current owner. NOTE: Renouncing ownership will leave the contract without an owner, thereby removing any functionality that is only available to the owner."
      },
      "safeTransferFrom(address,address,uint256)": {
        "details": "See {IERC721-safeTransferFrom}."
      },
      "safeTransferFrom(address,address,uint256,bytes)": {
        "details": "See {IERC721-safeTransferFrom}."
      },
      "setApprovalForAll(address,bool)": {
        "details": "See {IERC721-setApprovalForAll}."
      },
      "supportsInterface(bytes4)": {
        "details": "See {IERC165-supportsInterface}. Time complexity O(1), guaranteed to always use less than 30 000 gas."
      },
      "symbol()": {
        "details": "See {IERC721Metadata-symbol}."
      },
      "tokenByIndex(uint256)": {
        "details": "See {IERC721Enumerable-tokenByIndex}."
      },
      "tokenOfOwnerByIndex(address,uint256)": {
        "details": "See {IERC721Enumerable-tokenOfOwnerByIndex}."
      },
      "tokenURI(uint256)": {
        "details": "See {IERC721Metadata-tokenURI}."
      },
      "totalSupply()": {
        "details": "See {IERC721Enumerable-totalSupply}."
      },
      "transferFrom(address,address,uint256)": {
        "details": "See {IERC721-transferFrom}."
      },
      "transferOwnership(address)": {
        "details": "Transfers ownership of the contract to a new account (`newOwner`). Can only be called by the current owner."
      }
    },
    "version": 1
  },
  "userdoc": {
    "kind": "user",
    "methods": {},
    "version": 1
  }
}