{
  "contractName": "LuvNFT",
  "abi": [
    {
      "inputs": [],
      "stateMutability": "nonpayable",
      "type": "constructor"
    },
    {
      "anonymous": false,
      "inputs": [
        {
          "indexed": true,
          "internalType": "address",
          "name": "owner",
          "type": "address"
        },
        {
          "indexed": true,
          "internalType": "address",
          "name": "approved",
          "type": "address"
        },
        {
          "indexed": true,
          "internalType": "uint256",
          "name": "tokenId",
          "type": "uint256"
        }
      ],
      "name": "Approval",
      "type": "event"
    },
    {
      "anonymous": false,
      "inputs": [
        {
          "indexed": true,
          "internalType": "address",
          "name": "owner",
          "type": "address"
        },
        {
          "indexed": true,
          "internalType": "address",
          "name": "operator",
          "type": "address"
        },
        {
          "indexed": false,
          "internalType": "bool",
          "name": "approved",
          "type": "bool"
        }
      ],
      "name": "ApprovalForAll",
      "type": "event"
    },
    {
      "anonymous": false,
      "inputs": [
        {
          "indexed": false,
          "internalType": "address",
          "name": "bidAddress",
          "type": "address"
        },
        {
          "indexed": false,
          "internalType": "uint256",
          "name": "bidValue",
          "type": "uint256"
        }
      ],
      "name": "AuctionEnded",
      "type": "event"
    },
    {
      "anonymous": false,
      "inputs": [
        {
          "indexed": false,
          "internalType": "address",
          "name": "ownerAddress",
          "type": "address"
        },
        {
          "indexed": false,
          "internalType": "uint256",
          "name": "_biddingTime",
          "type": "uint256"
        }
      ],
      "name": "AuctionStarted",
      "type": "event"
    },
    {
      "anonymous": false,
      "inputs": [
        {
          "indexed": false,
          "internalType": "address",
          "name": "bidAddress",
          "type": "address"
        },
        {
          "indexed": false,
          "internalType": "uint256",
          "name": "bidValue",
          "type": "uint256"
        }
      ],
      "name": "BidIncrease",
      "type": "event"
    },
    {
      "anonymous": false,
      "inputs": [
        {
          "indexed": false,
          "internalType": "address",
          "name": "bidAddress",
          "type": "address"
        },
        {
          "indexed": false,
          "internalType": "uint256",
          "name": "bidValue",
          "type": "uint256"
        }
      ],
      "name": "BidRejected",
      "type": "event"
    },
    {
      "anonymous": false,
      "inputs": [
        {
          "indexed": false,
          "internalType": "address",
          "name": "bidAddress",
          "type": "address"
        },
        {
          "indexed": false,
          "internalType": "uint256",
          "name": "bidValue",
          "type": "uint256"
        }
      ],
      "name": "BidWithdrawn",
      "type": "event"
    },
    {
      "anonymous": false,
      "inputs": [
        {
          "indexed": false,
          "internalType": "address",
          "name": "_seller",
          "type": "address"
        },
        {
          "indexed": false,
          "internalType": "address",
          "name": "_buyer",
          "type": "address"
        },
        {
          "indexed": false,
          "internalType": "uint256",
          "name": "_price",
          "type": "uint256"
        }
      ],
      "name": "NftBought",
      "type": "event"
    },
    {
      "anonymous": false,
      "inputs": [
        {
          "indexed": true,
          "internalType": "address",
          "name": "previousOwner",
          "type": "address"
        },
        {
          "indexed": true,
          "internalType": "address",
          "name": "newOwner",
          "type": "address"
        }
      ],
      "name": "OwnershipTransferred",
      "type": "event"
    },
    {
      "anonymous": false,
      "inputs": [
        {
          "indexed": true,
          "internalType": "address",
          "name": "from",
          "type": "address"
        },
        {
          "indexed": true,
          "internalType": "address",
          "name": "to",
          "type": "address"
        },
        {
          "indexed": true,
          "internalType": "uint256",
          "name": "tokenId",
          "type": "uint256"
        }
      ],
      "name": "Transfer",
      "type": "event"
    },
    {
      "inputs": [],
      "name": "acceptedBidsIdx",
      "outputs": [
        {
          "internalType": "uint256",
          "name": "",
          "type": "uint256"
        }
      ],
      "stateMutability": "view",
      "type": "function"
    },
    {
      "inputs": [
        {
          "internalType": "address",
          "name": "to",
          "type": "address"
        },
        {
          "internalType": "uint256",
          "name": "tokenId",
          "type": "uint256"
        }
      ],
      "name": "approve",
      "outputs": [],
      "stateMutability": "nonpayable",
      "type": "function"
    },
    {
      "inputs": [
        {
          "internalType": "address",
          "name": "owner",
          "type": "address"
        }
      ],
      "name": "balanceOf",
      "outputs": [
        {
          "internalType": "uint256",
          "name": "",
          "type": "uint256"
        }
      ],
      "stateMutability": "view",
      "type": "function"
    },
    {
      "inputs": [],
      "name": "baseURI",
      "outputs": [
        {
          "internalType": "string",
          "name": "",
          "type": "string"
        }
      ],
      "stateMutability": "view",
      "type": "function"
    },
    {
      "inputs": [
        {
          "internalType": "uint256",
          "name": "tokenId",
          "type": "uint256"
        }
      ],
      "name": "getApproved",
      "outputs": [
        {
          "internalType": "address",
          "name": "",
          "type": "address"
        }
      ],
      "stateMutability": "view",
      "type": "function"
    },
    {
      "inputs": [
        {
          "internalType": "address",
          "name": "owner",
          "type": "address"
        },
        {
          "internalType": "address",
          "name": "operator",
          "type": "address"
        }
      ],
      "name": "isApprovedForAll",
      "outputs": [
        {
          "internalType": "bool",
          "name": "",
          "type": "bool"
        }
      ],
      "stateMutability": "view",
      "type": "function"
    },
    {
      "inputs": [],
      "name": "name",
      "outputs": [
        {
          "internalType": "string",
          "name": "",
          "type": "string"
        }
      ],
      "stateMutability": "view",
      "type": "function"
    },
    {
      "inputs": [],
      "name": "nextId",
      "outputs": [
        {
          "internalType": "uint256",
          "name": "",
          "type": "uint256"
        }
      ],
      "stateMutability": "view",
      "type": "function"
    },
    {
      "inputs": [],
      "name": "owner",
      "outputs": [
        {
          "internalType": "address",
          "name": "",
          "type": "address"
        }
      ],
      "stateMutability": "view",
      "type": "function"
    },
    {
      "inputs": [
        {
          "internalType": "uint256",
          "name": "tokenId",
          "type": "uint256"
        }
      ],
      "name": "ownerOf",
      "outputs": [
        {
          "internalType": "address",
          "name": "",
          "type": "address"
        }
      ],
      "stateMutability": "view",
      "type": "function"
    },
    {
      "inputs": [],
      "name": "renounceOwnership",
      "outputs": [],
      "stateMutability": "nonpayable",
      "type": "function"
    },
    {
      "inputs": [
        {
          "internalType": "address",
          "name": "from",
          "type": "address"
        },
        {
          "internalType": "address",
          "name": "to",
          "type": "address"
        },
        {
          "internalType": "uint256",
          "name": "tokenId",
          "type": "uint256"
        }
      ],
      "name": "safeTransferFrom",
      "outputs": [],
      "stateMutability": "nonpayable",
      "type": "function"
    },
    {
      "inputs": [
        {
          "internalType": "address",
          "name": "from",
          "type": "address"
        },
        {
          "internalType": "address",
          "name": "to",
          "type": "address"
        },
        {
          "internalType": "uint256",
          "name": "tokenId",
          "type": "uint256"
        },
        {
          "internalType": "bytes",
          "name": "_data",
          "type": "bytes"
        }
      ],
      "name": "safeTransferFrom",
      "outputs": [],
      "stateMutability": "nonpayable",
      "type": "function"
    },
    {
      "inputs": [
        {
          "internalType": "address",
          "name": "operator",
          "type": "address"
        },
        {
          "internalType": "bool",
          "name": "approved",
          "type": "bool"
        }
      ],
      "name": "setApprovalForAll",
      "outputs": [],
      "stateMutability": "nonpayable",
      "type": "function"
    },
    {
      "inputs": [
        {
          "internalType": "bytes4",
          "name": "interfaceId",
          "type": "bytes4"
        }
      ],
      "name": "supportsInterface",
      "outputs": [
        {
          "internalType": "bool",
          "name": "",
          "type": "bool"
        }
      ],
      "stateMutability": "view",
      "type": "function"
    },
    {
      "inputs": [],
      "name": "symbol",
      "outputs": [
        {
          "internalType": "string",
          "name": "",
          "type": "string"
        }
      ],
      "stateMutability": "view",
      "type": "function"
    },
    {
      "inputs": [
        {
          "internalType": "uint256",
          "name": "index",
          "type": "uint256"
        }
      ],
      "name": "tokenByIndex",
      "outputs": [
        {
          "internalType": "uint256",
          "name": "",
          "type": "uint256"
        }
      ],
      "stateMutability": "view",
      "type": "function"
    },
    {
      "inputs": [
        {
          "internalType": "uint256",
          "name": "",
          "type": "uint256"
        }
      ],
      "name": "tokenIdToPrice",
      "outputs": [
        {
          "internalType": "uint256",
          "name": "",
          "type": "uint256"
        }
      ],
      "stateMutability": "view",
      "type": "function"
    },
    {
      "inputs": [
        {
          "internalType": "address",
          "name": "owner",
          "type": "address"
        },
        {
          "internalType": "uint256",
          "name": "index",
          "type": "uint256"
        }
      ],
      "name": "tokenOfOwnerByIndex",
      "outputs": [
        {
          "internalType": "uint256",
          "name": "",
          "type": "uint256"
        }
      ],
      "stateMutability": "view",
      "type": "function"
    },
    {
      "inputs": [
        {
          "internalType": "uint256",
          "name": "tokenId",
          "type": "uint256"
        }
      ],
      "name": "tokenURI",
      "outputs": [
        {
          "internalType": "string",
          "name": "",
          "type": "string"
        }
      ],
      "stateMutability": "view",
      "type": "function"
    },
    {
      "inputs": [],
      "name": "totalSupply",
      "outputs": [
        {
          "internalType": "uint256",
          "name": "",
          "type": "uint256"
        }
      ],
      "stateMutability": "view",
      "type": "function"
    },
    {
      "inputs": [
        {
          "internalType": "address",
          "name": "from",
          "type": "address"
        },
        {
          "internalType": "address",
          "name": "to",
          "type": "address"
        },
        {
          "internalType": "uint256",
          "name": "tokenId",
          "type": "uint256"
        }
      ],
      "name": "transferFrom",
      "outputs": [],
      "stateMutability": "nonpayable",
      "type": "function"
    },
    {
      "inputs": [
        {
          "internalType": "address",
          "name": "newOwner",
          "type": "address"
        }
      ],
      "name": "transferOwnership",
      "outputs": [],
      "stateMutability": "nonpayable",
      "type": "function"
    },
    {
      "inputs": [
        {
          "internalType": "uint256",
          "name": "tokenId",
          "type": "uint256"
        }
      ],
      "name": "getTokenDetails",
      "outputs": [
        {
          "components": [
            {
              "internalType": "string",
              "name": "nft_info",
              "type": "string"
            },
            {
              "internalType": "bool",
              "name": "isExist",
              "type": "bool"
            }
          ],
          "internalType": "struct LuvNFT.Location",
          "name": "",
          "type": "tuple"
        }
      ],
      "stateMutability": "view",
      "type": "function"
    },
    {
      "inputs": [
        {
          "internalType": "uint256",
          "name": "tokenId",
          "type": "uint256"
        },
        {
          "internalType": "string",
          "name": "latitude",
          "type": "string"
        },
        {
          "internalType": "string",
          "name": "longitude",
          "type": "string"
        },
        {
          "internalType": "string",
          "name": "name",
          "type": "string"
        }
      ],
      "name": "getSVG",
      "outputs": [
        {
          "internalType": "string",
          "name": "",
          "type": "string"
        }
      ],
      "stateMutability": "view",
      "type": "function"
    },
    {
      "inputs": [
        {
          "internalType": "uint256",
          "name": "tokenId",
          "type": "uint256"
        }
      ],
      "name": "getPriceOf",
      "outputs": [
        {
          "internalType": "uint256",
          "name": "",
          "type": "uint256"
        }
      ],
      "stateMutability": "view",
      "type": "function"
    },
    {
      "inputs": [
        {
          "internalType": "uint256",
          "name": "tokenId",
          "type": "uint256"
        }
      ],
      "name": "getOwnerOf",
      "outputs": [
        {
          "internalType": "address",
          "name": "",
          "type": "address"
        }
      ],
      "stateMutability": "view",
      "type": "function"
    },
    {
      "inputs": [
        {
          "internalType": "uint256",
          "name": "tokenId",
          "type": "uint256"
        }
      ],
      "name": "getAuctionInfo",
      "outputs": [
        {
          "components": [
            {
              "internalType": "uint256",
              "name": "tokenId",
              "type": "uint256"
            },
            {
              "internalType": "address",
              "name": "beneficiary",
              "type": "address"
            },
            {
              "internalType": "bool",
              "name": "auctionGoingOn",
              "type": "bool"
            },
            {
              "internalType": "bool",
              "name": "auctionEnded",
              "type": "bool"
            },
            {
              "internalType": "uint256",
              "name": "auctionEndTime",
              "type": "uint256"
            },
            {
              "internalType": "uint256",
              "name": "biddingTime",
              "type": "uint256"
            },
            {
              "internalType": "address",
              "name": "highestBidder",
              "type": "address"
            },
            {
              "internalType": "uint256",
              "name": "highestBid",
              "type": "uint256"
            },
            {
              "internalType": "bool",
              "name": "isExist",
              "type": "bool"
            }
          ],
          "internalType": "struct LuvNFT.Auction",
          "name": "",
          "type": "tuple"
        }
      ],
      "stateMutability": "view",
      "type": "function"
    },
    {
      "inputs": [
        {
          "internalType": "uint256",
          "name": "bidId",
          "type": "uint256"
        }
      ],
      "name": "getBiddingLog",
      "outputs": [
        {
          "components": [
            {
              "internalType": "uint256",
              "name": "tokenId",
              "type": "uint256"
            },
            {
              "internalType": "address",
              "name": "bidder",
              "type": "address"
            },
            {
              "internalType": "uint256",
              "name": "bidValue",
              "type": "uint256"
            },
            {
              "internalType": "uint256",
              "name": "timeBid",
              "type": "uint256"
            }
          ],
          "internalType": "struct LuvNFT.Bid",
          "name": "",
          "type": "tuple"
        }
      ],
      "stateMutability": "view",
      "type": "function"
    },
    {
      "inputs": [
        {
          "internalType": "uint256",
          "name": "tokenId",
          "type": "uint256"
        }
      ],
      "name": "getPendingReturnsCount",
      "outputs": [
        {
          "internalType": "uint256",
          "name": "",
          "type": "uint256"
        }
      ],
      "stateMutability": "view",
      "type": "function"
    },
    {
      "inputs": [
        {
          "internalType": "uint256",
          "name": "tokenId",
          "type": "uint256"
        },
        {
          "internalType": "address",
          "name": "addr",
          "type": "address"
        }
      ],
      "name": "getPendingReturnValue",
      "outputs": [
        {
          "internalType": "uint256",
          "name": "",
          "type": "uint256"
        }
      ],
      "stateMutability": "view",
      "type": "function"
    },
    {
      "inputs": [
        {
          "internalType": "string",
          "name": "nft_info",
          "type": "string"
        },
        {
          "internalType": "uint256",
          "name": "price",
          "type": "uint256"
        }
      ],
      "name": "mint",
      "outputs": [],
      "stateMutability": "nonpayable",
      "type": "function"
    },
    {
      "inputs": [
        {
          "internalType": "uint256",
          "name": "_tokenId",
          "type": "uint256"
        }
      ],
      "name": "buy",
      "outputs": [],
      "stateMutability": "payable",
      "type": "function"
    },
    {
      "inputs": [
        {
          "internalType": "uint256",
          "name": "_tokenId",
          "type": "uint256"
        },
        {
          "internalType": "uint256",
          "name": "_biddingTime",
          "type": "uint256"
        }
      ],
      "name": "startAuction",
      "outputs": [],
      "stateMutability": "nonpayable",
      "type": "function"
    },
    {
      "inputs": [
        {
          "internalType": "uint256",
          "name": "_tokenId",
          "type": "uint256"
        }
      ],
      "name": "endAuction",
      "outputs": [],
      "stateMutability": "nonpayable",
      "type": "function"
    },
    {
      "inputs": [
        {
          "internalType": "uint256",
          "name": "_tokenId",
          "type": "uint256"
        }
      ],
      "name": "placeBid",
      "outputs": [],
      "stateMutability": "payable",
      "type": "function"
    },
    {
      "inputs": [
        {
          "internalType": "uint256",
          "name": "_tokenId",
          "type": "uint256"
        }
      ],
      "name": "withdrawBid",
      "outputs": [],
      "stateMutability": "payable",
      "type": "function"
    },
    {
      "inputs": [
        {
          "internalType": "uint256",
          "name": "_tokenId",
          "type": "uint256"
        }
      ],
      "name": "increaseBid",
      "outputs": [],
      "stateMutability": "payable",
      "type": "function"
    }
  ],
  "bytecode": "0x60806040526000600b556000600c553480156200001b57600080fd5b50604080518082018252600881526715dbdc9b1913919560c21b6020808301919091528251808401909352600483526315d3919560e21b9083015290620000696301ffc9a760e01b6200012e565b81516200007e906006906020850190620001b7565b50805162000094906007906020840190620001b7565b50620000a76380ac58cd60e01b6200012e565b620000b9635b5e139f60e01b6200012e565b620000cb63780e9d6360e01b6200012e565b5060009050620000da620001b3565b600a80546001600160a01b0319166001600160a01b038316908117909155604051919250906000907f8be0079c531659141344cd1fd0a4f28419497f9722a3daafe3b4186f6b6457e0908290a35062000263565b6001600160e01b031980821614156200018e576040805162461bcd60e51b815260206004820152601c60248201527f4552433136353a20696e76616c696420696e7465726661636520696400000000604482015290519081900360640190fd5b6001600160e01b0319166000908152602081905260409020805460ff19166001179055565b3390565b828054600181600116156101000203166002900490600052602060002090601f016020900481019282620001ef57600085556200023a565b82601f106200020a57805160ff19168380011785556200023a565b828001600101855582156200023a579182015b828111156200023a5782518255916020019190600101906200021d565b50620002489291506200024c565b5090565b5b808211156200024857600081556001016200024d565b613bfb80620002736000396000f3fe6080604052600436106102245760003560e01c8063715018a611610123578063b88d4fde116100ab578063e985e9c51161006f578063e985e9c514610616578063f07571a014610636578063f2fde38b14610656578063f4812eb914610676578063fc3fc4ed1461069657610224565b8063b88d4fde14610576578063b9a2de3a14610596578063c1e03728146105b6578063c87b56dd146105e3578063d96a094a1461060357610224565b80639979ef45116100f25780639979ef45146104d6578063a22cb465146104e9578063a321615814610509578063ad81bd1c14610529578063b54b4fb91461055657610224565b8063715018a614610477578063836387101461048c5780638da5cb5b146104ac57806395d89b41146104c157610224565b806323b872dd116101b157806361b8ce8c1161017557806361b8ce8c146103ed5780636352211e146104025780636c0360eb146104225780636f169aa01461043757806370a082311461045757610224565b806323b872dd1461034d5780632f745c591461036d57806342842e0e1461038d5780634f6ccce7146103ad5780634fee13fc146103cd57610224565b806306fdde03116101f857806306fdde03146102b6578063081812fc146102d8578063095ea7b3146103055780630eaaf4c81461032557806318160ddd1461033857610224565b806270c5371461022957806301ffc9a71461023e578063056b01ce14610274578063067fa8fc14610294575b600080fd5b61023c6102373660046133cc565b6106c3565b005b34801561024a57600080fd5b5061025e6102593660046132f7565b6106c6565b60405161026b9190613553565b60405180910390f35b34801561028057600080fd5b5061023c61028f366004613389565b6106e9565b3480156102a057600080fd5b506102a96107e4565b60405161026b9190613838565b3480156102c257600080fd5b506102cb6107ea565b60405161026b919061355e565b3480156102e457600080fd5b506102f86102f33660046133cc565b610880565b60405161026b9190613502565b34801561031157600080fd5b5061023c6103203660046132cc565b6108e2565b61023c6103333660046133cc565b6109b8565b34801561034457600080fd5b506102a9610d1d565b34801561035957600080fd5b5061023c6103683660046131de565b610d2e565b34801561037957600080fd5b506102a96103883660046132cc565b610d85565b34801561039957600080fd5b5061023c6103a83660046131de565b610db0565b3480156103b957600080fd5b506102a96103c83660046133cc565b610dcb565b3480156103d957600080fd5b5061023c6103e83660046134a2565b610de1565b3480156103f957600080fd5b506102a961103a565b34801561040e57600080fd5b506102f861041d3660046133cc565b611040565b34801561042e57600080fd5b506102cb611068565b34801561044357600080fd5b506102a96104523660046133fc565b6110c9565b34801561046357600080fd5b506102a961047236600461316e565b611168565b34801561048357600080fd5b5061023c6111d0565b34801561049857600080fd5b506102f86104a73660046133cc565b61128e565b3480156104b857600080fd5b506102f8611299565b3480156104cd57600080fd5b506102cb6112a8565b61023c6104e43660046133cc565b611309565b3480156104f557600080fd5b5061023c61050436600461329b565b61156f565b34801561051557600080fd5b506102cb610524366004613420565b611674565b34801561053557600080fd5b506105496105443660046133cc565b611730565b60405161026b91906137d0565b34801561056257600080fd5b506102a96105713660046133cc565b611786565b34801561058257600080fd5b5061023c61059136600461321e565b611798565b3480156105a257600080fd5b5061023c6105b13660046133cc565b6117f6565b3480156105c257600080fd5b506105d66105d13660046133cc565b611d18565b60405161026b9190613804565b3480156105ef57600080fd5b506102cb6105fe3660046133cc565b611ddc565b61023c6106113660046133cc565b61205d565b34801561062257600080fd5b5061025e6106313660046131a6565b612139565b34801561064257600080fd5b506102a96106513660046133cc565b612167565b34801561066257600080fd5b5061023c61067136600461316e565b612203565b34801561068257600080fd5b506102a96106913660046133cc565b612318565b3480156106a257600080fd5b506106b66106b13660046133cc565b61232a565b60405161026b9190613741565b50565b6001600160e01b0319811660009081526020819052604090205460ff165b919050565b6106f16123ca565b6001600160a01b0316610702611299565b6001600160a01b03161461075d576040805162461bcd60e51b815260206004820181905260248201527f4f776e61626c653a2063616c6c6572206973206e6f7420746865206f776e6572604482015290519081900360640190fd5b6040805180820182528381526001602080830191909152600b546000908152600d82529290922081518051929391926107999284920190612fdb565b50602091820151600191909101805460ff1916911515919091179055600b80546000908152600e9092526040909120829055546107d79033906123ce565b5050600b80546001019055565b600c5481565b60068054604080516020601f60026000196101006001881615020190951694909404938401819004810282018101909252828152606093909290918301828280156108765780601f1061084b57610100808354040283529160200191610876565b820191906000526020600020905b81548152906001019060200180831161085957829003601f168201915b5050505050905090565b600061088b826123ec565b6108c65760405162461bcd60e51b815260040180806020018281038252602c815260200180613af0602c913960400191505060405180910390fd5b506000908152600460205260409020546001600160a01b031690565b60006108ed82611040565b9050806001600160a01b0316836001600160a01b031614156109405760405162461bcd60e51b8152600401808060200182810382526021815260200180613b746021913960400191505060405180910390fd5b806001600160a01b03166109526123ca565b6001600160a01b0316148061096e575061096e816106316123ca565b6109a95760405162461bcd60e51b8152600401808060200182810382526038815260200180613a436038913960400191505060405180910390fd5b6109b383836123f9565b505050565b60006109c38261232a565b90508061010001516109f05760405162461bcd60e51b81526004016109e790613658565b60405180910390fd5b600082815260116020526040812090805b604051636f59ec4b60e11b815273__IterableMapping_______________________9063deb3d89690610a38908690600401613838565b60206040518083038186803b158015610a5057600080fd5b505af4158015610a64573d6000803e3d6000fd5b505050506040513d601f19601f82011682018060405250810190610a8891906133e4565b811015610c4c576040516368d54f3f60e11b815260009073__IterableMapping_______________________9063d1aa9e7e90610acb9087908690600401613877565b60206040518083038186803b158015610ae357600080fd5b505af4158015610af7573d6000803e3d6000fd5b505050506040513d601f19601f82011682018060405250810190610b1b919061318a565b90506000610b2987836110c9565b90508015610c42576001600160a01b038216331415610c20576040516001600160a01b0383169082156108fc029083906000818181858888f19350505050158015610b78573d6000803e3d6000fd5b5060405163131836e760e21b815273__IterableMapping_______________________90634c60db9c90610bb29088908690600401613841565b60006040518083038186803b158015610bca57600080fd5b505af4158015610bde573d6000803e3d6000fd5b505050507f03f0427e8bcfdf5f69217150cf160ebe2dac5fa607336fd7643bfd61a90190808282604051610c13929190613516565b60405180910390a1610c42565b80841015610c425760e086018190526001600160a01b03821660c08701529250825b5050600101610a01565b5080610c6157600060e0840181905260c08401525b50506000918252600f602090815260409283902082518155908201516001820180549484015160608501511515600160a81b0260ff60a81b19911515600160a01b0260ff60a01b196001600160a01b039586166001600160a01b0319998a16171617919091161790556080830151600283015560a0830151600383015560c08301516004830180549190921694169390931790925560e0810151600583015561010001516006909101805491151560ff19909216919091179055565b6000610d296002612467565b905090565b610d3f610d396123ca565b82612472565b610d7a5760405162461bcd60e51b8152600401808060200182810382526031815260200180613b956031913960400191505060405180910390fd5b6109b383838361250e565b6001600160a01b0382166000908152600160205260408120610da7908361265a565b90505b92915050565b6109b383838360405180602001604052806000815250611798565b600080610dd9600284612666565b509392505050565b6000828152600d60205260409020600101544282019060ff16610e165760405162461bcd60e51b81526004016109e790613571565b610e1f83611040565b6001600160a01b0316336001600160a01b031614610e4f5760405162461bcd60e51b81526004016109e7906135d5565b6000838152600f602052604090206006015460ff168015610e8957506000838152600f6020526040902060010154600160a81b900460ff16155b15610ea65760405162461bcd60e51b81526004016109e7906136b0565b604051806101200160405280848152602001336001600160a01b0316815260200160011515815260200160001515815260200182815260200183815260200160006001600160a01b031681526020016000815260200160011515815250600f60008581526020019081526020016000206000820151816000015560208201518160010160006101000a8154816001600160a01b0302191690836001600160a01b0316021790555060408201518160010160146101000a81548160ff02191690831515021790555060608201518160010160156101000a81548160ff0219169083151502179055506080820151816002015560a0820151816003015560c08201518160040160006101000a8154816001600160a01b0302191690836001600160a01b0316021790555060e082015181600501556101008201518160060160006101000a81548160ff0219169083151502179055509050507fc087c4cdb16906b5ff7016a6bf927618f24ff32eb1de5e86eeaeb08b94831a68338360405161102d929190613516565b60405180910390a1505050565b600b5481565b6000610daa82604051806060016040528060298152602001613aa56029913960029190612682565b60098054604080516020601f60026000196101006001881615020190951694909404938401819004810282018101909252828152606093909290918301828280156108765780601f1061084b57610100808354040283529160200191610876565b600082815260116020526040808220905163732a2ccf60e01b815273__IterableMapping_______________________9063732a2ccf906111109084908790600401613841565b60206040518083038186803b15801561112857600080fd5b505af415801561113c573d6000803e3d6000fd5b505050506040513d601f19601f8201168201806040525081019061116091906133e4565b949350505050565b60006001600160a01b0382166111af5760405162461bcd60e51b815260040180806020018281038252602a815260200180613a7b602a913960400191505060405180910390fd5b6001600160a01b0382166000908152600160205260409020610daa90612467565b6111d86123ca565b6001600160a01b03166111e9611299565b6001600160a01b031614611244576040805162461bcd60e51b815260206004820181905260248201527f4f776e61626c653a2063616c6c6572206973206e6f7420746865206f776e6572604482015290519081900360640190fd5b600a546040516000916001600160a01b0316907f8be0079c531659141344cd1fd0a4f28419497f9722a3daafe3b4186f6b6457e0908390a3600a80546001600160a01b0319169055565b6000610daa82611040565b600a546001600160a01b031690565b60078054604080516020601f60026000196101006001881615020190951694909404938401819004810282018101909252828152606093909290918301828280156108765780601f1061084b57610100808354040283529160200191610876565b60006113148261232a565b90508061010001516113385760405162461bcd60e51b81526004016109e790613658565b6000828152600e602052604090205434116113655760405162461bcd60e51b81526004016109e790613621565b8060e0015134116113885760405162461bcd60e51b81526004016109e790613716565b3460e082018181523360c084018181526000868152600f602090815260408083208851815582890151600182018054848c015160608d01511515600160a81b0260ff60a81b19911515600160a01b0260ff60a01b196001600160a01b039687166001600160a01b0319958616171617919091161790915560808b0151600284015560a08b015160038401559551600480840180549290931691909716179055955160058701556101008801516006909601805496151560ff1990971696909617909555601190528390209251632f0ad01760e21b8152929373__IterableMapping_______________________9363bc2b405c9361148a938793919201613858565b60006040518083038186803b1580156114a257600080fd5b505af41580156114b6573d6000803e3d6000fd5b505050507fde11ebd9a4f52f9d475e408266bfa5a8a50ebd212fd91bc37f6b438b7aaa6ad533346040516114eb929190613516565b60405180910390a1505060408051608081018252918252336020808401918252348484019081524260608601908152600c80546000908152601090945294909220945185559151600180860180546001600160a01b0319166001600160a01b0390931692909217909155915160028501555160039093019290925580549091019055565b6115776123ca565b6001600160a01b0316826001600160a01b031614156115dd576040805162461bcd60e51b815260206004820152601960248201527f4552433732313a20617070726f766520746f2063616c6c657200000000000000604482015290519081900360640190fd5b80600560006115ea6123ca565b6001600160a01b03908116825260208083019390935260409182016000908120918716808252919093529120805460ff19169215159290921790915561162e6123ca565b6001600160a01b03167f17307eab39ab6107e8899845ad3d59bd9653f200f220920489ca2b5937696c318360405180821515815260200191505060405180910390a35050565b606073__NFTDescriptor_________________________630e1d809e6040518060a00160405280888152602001438152602001878152602001868152602001858152506040518263ffffffff1660e01b81526004016116d39190613885565b60006040518083038186803b1580156116eb57600080fd5b505af41580156116ff573d6000803e3d6000fd5b505050506040513d6000823e601f3d908101601f19168201604052611727919081019061331f565b95945050505050565b611738613067565b5060009081526010602090815260409182902082516080810184528154815260018201546001600160a01b031692810192909252600281015492820192909252600390910154606082015290565b6000908152600e602052604090205490565b6117a96117a36123ca565b83612472565b6117e45760405162461bcd60e51b8152600401808060200182810382526031815260200180613b956031913960400191505060405180910390fd5b6117f08484848461268f565b50505050565b60006118018261232a565b90508061010001516118255760405162461bcd60e51b81526004016109e790613658565b80608001514210156118495760405162461bcd60e51b81526004016109e7906136b0565b80606001511561186b5760405162461bcd60e51b81526004016109e7906136e7565b600082815260116020526040902060e08201516119885760016060830181815260006040808601828152878352600f60209081529282902087518155928701519483018054915194511515600160a81b0260ff60a81b19951515600160a01b0260ff60a01b196001600160a01b039889166001600160a01b031995861617161795909516949094179093556080860151600283015560a0860151600383015560c0860151600483018054958216959094169490941790925560e0850151600582018190556101008601516006909201805492151560ff199093169290921790915590517fdaec4582d5d9595688c8c98545fdd1c696d41c6aeaeb636737e84ed2f5c00eda9261197b929091613516565b60405180910390a1611b6b565b6001606083015260006040808401829052602084015160e085015191516001600160a01b039091169282156108fc02929190818181858888f193505050501580156119d7573d6000803e3d6000fd5b506119eb82602001518360c001518561250e565b60c0820180516001600160a01b0390811660208086019182526000878152600f82526040808220885181559351600185018054838b015160608c01511515600160a81b0260ff60a81b19911515600160a01b0260ff60a01b19958b166001600160a01b0319948516179590951694909417169290921790556080890151600286015560a0890151600386015586516004808701805492909816919092161790955560e0880151600585018190556101008901516006909501805495151560ff1990961695909517909455600e9092528181209290925592519251632f0ad01760e21b815273__IterableMapping_______________________9363bc2b405c93611af9938793909101613858565b60006040518083038186803b158015611b1157600080fd5b505af4158015611b25573d6000803e3d6000fd5b505050507fdaec4582d5d9595688c8c98545fdd1c696d41c6aeaeb636737e84ed2f5c00eda8260c001518360e00151604051611b62929190613516565b60405180910390a15b60005b604051636f59ec4b60e11b815273__IterableMapping_______________________9063deb3d89690611ba5908590600401613838565b60206040518083038186803b158015611bbd57600080fd5b505af4158015611bd1573d6000803e3d6000fd5b505050506040513d601f19601f82011682018060405250810190611bf591906133e4565b8110156117f0576040516368d54f3f60e11b815260009073__IterableMapping_______________________9063d1aa9e7e90611c389086908690600401613877565b60206040518083038186803b158015611c5057600080fd5b505af4158015611c64573d6000803e3d6000fd5b505050506040513d601f19601f82011682018060405250810190611c88919061318a565b90506000611c9686836110c9565b90508015611d0e576040516001600160a01b0383169082156108fc029083906000818181858888f19350505050158015611cd4573d6000803e3d6000fd5b507e363fe256a1f2c23b39e0cfe65d691c725e83e534d368d718337b9d46b705ae8282604051611d05929190613516565b60405180910390a15b5050600101611b6e565b611d20613098565b6000828152600d60209081526040918290208251815460026001821615610100026000190190911604601f8101849004909302810160609081018552938101838152909391928492849190840182828015611dbc5780601f10611d9157610100808354040283529160200191611dbc565b820191906000526020600020905b815481529060010190602001808311611d9f57829003601f168201915b50505091835250506001919091015460ff16151560209091015292915050565b6060611de7826123ec565b611e225760405162461bcd60e51b815260040180806020018281038252602f815260200180613b45602f913960400191505060405180910390fd5b60008281526008602090815260408083208054825160026001831615610100026000190190921691909104601f810185900485028201850190935282815292909190830182828015611eb55780601f10611e8a57610100808354040283529160200191611eb5565b820191906000526020600020905b815481529060010190602001808311611e9857829003601f168201915b505050505090506000611ec6611068565b9050805160001415611eda575090506106e4565b815115611f9b5780826040516020018083805190602001908083835b60208310611f155780518252601f199092019160209182019101611ef6565b51815160209384036101000a600019018019909216911617905285519190930192850191508083835b60208310611f5d5780518252601f199092019160209182019101611f3e565b6001836020036101000a03801982511681845116808217855250505050505090500192505050604051602081830303815290604052925050506106e4565b80611fa5856126e1565b6040516020018083805190602001908083835b60208310611fd75780518252601f199092019160209182019101611fb8565b51815160209384036101000a600019018019909216911617905285519190930192850191508083835b6020831061201f5780518252601f199092019160209182019101612000565b6001836020036101000a0380198251168184511680821785525050505050509050019250505060405160208183030381529060405292505050919050565b6000818152600e6020526040902054806120895760405162461bcd60e51b81526004016109e79061359e565b8034146120a85760405162461bcd60e51b81526004016109e790613687565b60006120b383611040565b90506120c081338561250e565b6000838152600e6020526040808220829055516001600160a01b038316913480156108fc02929091818181858888f19350505050158015612105573d6000803e3d6000fd5b507f608f6ac9327c2bf4d3c77adf447d2c448ba7b0971e0aaa9aa03f7ac29d874a4481333460405161102d9392919061352f565b6001600160a01b03918216600090815260056020908152604080832093909416825291909152205460ff1690565b6000818152601160205260408082209051636f59ec4b60e11b815273__IterableMapping_______________________9063deb3d896906121ac908490600401613838565b60206040518083038186803b1580156121c457600080fd5b505af41580156121d8573d6000803e3d6000fd5b505050506040513d601f19601f820116820180604052508101906121fc91906133e4565b9392505050565b61220b6123ca565b6001600160a01b031661221c611299565b6001600160a01b031614612277576040805162461bcd60e51b815260206004820181905260248201527f4f776e61626c653a2063616c6c6572206973206e6f7420746865206f776e6572604482015290519081900360640190fd5b6001600160a01b0381166122bc5760405162461bcd60e51b81526004018080602001828103825260268152602001806139cd6026913960400191505060405180910390fd5b600a546040516001600160a01b038084169216907f8be0079c531659141344cd1fd0a4f28419497f9722a3daafe3b4186f6b6457e090600090a3600a80546001600160a01b0319166001600160a01b0392909216919091179055565b600e6020526000908152604090205481565b6123326130b0565b506000908152600f60209081526040918290208251610120810184528154815260018201546001600160a01b038082169483019490945260ff600160a01b82048116151595830195909552600160a81b900484161515606082015260028201546080820152600382015460a0820152600482015490921660c0830152600581015460e083015260060154909116151561010082015290565b3390565b6123e88282604051806020016040528060008152506127bc565b5050565b6000610daa60028361280e565b600081815260046020526040902080546001600160a01b0319166001600160a01b038416908117909155819061242e82611040565b6001600160a01b03167f8c5be1e5ebec7d5bd14f71427d1e84f3dd0314c0f7b2291e5b200ac8c7c3b92560405160405180910390a45050565b6000610daa8261281a565b600061247d826123ec565b6124b85760405162461bcd60e51b815260040180806020018281038252602c815260200180613a17602c913960400191505060405180910390fd5b60006124c383611040565b9050806001600160a01b0316846001600160a01b031614806124fe5750836001600160a01b03166124f384610880565b6001600160a01b0316145b8061116057506111608185612139565b826001600160a01b031661252182611040565b6001600160a01b0316146125665760405162461bcd60e51b8152600401808060200182810382526029815260200180613b1c6029913960400191505060405180910390fd5b6001600160a01b0382166125ab5760405162461bcd60e51b81526004018080602001828103825260248152602001806139f36024913960400191505060405180910390fd5b6125b68383836109b3565b6125c16000826123f9565b6001600160a01b03831660009081526001602052604090206125e3908261281e565b506001600160a01b0382166000908152600160205260409020612606908261282a565b5061261360028284612836565b5080826001600160a01b0316846001600160a01b03167fddf252ad1be2c89b69c2b068fc378daa952ba7f163c4a11628f55a4df523b3ef60405160405180910390a4505050565b6000610da7838361284c565b600080808061267586866128b0565b9097909650945050505050565b600061116084848461292b565b61269a84848461250e565b6126a6848484846129f5565b6117f05760405162461bcd60e51b815260040180806020018281038252603281526020018061399b6032913960400191505060405180910390fd5b60608161270657506040805180820190915260018152600360fc1b60208201526106e4565b8160005b811561271e57600101600a8204915061270a565b60008167ffffffffffffffff8111801561273757600080fd5b506040519080825280601f01601f191660200182016040528015612762576020820181803683370190505b50859350905060001982015b83156127b357600a840660300160f81b8282806001900393508151811061279157fe5b60200101906001600160f81b031916908160001a905350600a8404935061276e565b50949350505050565b6127c68383612b5d565b6127d360008484846129f5565b6109b35760405162461bcd60e51b815260040180806020018281038252603281526020018061399b6032913960400191505060405180910390fd5b6000610da78383612c8b565b5490565b6000610da78383612ca3565b6000610da78383612d69565b600061116084846001600160a01b038516612db3565b8154600090821061288e5760405162461bcd60e51b81526004018080602001828103825260228152602001806139796022913960400191505060405180910390fd5b82600001828154811061289d57fe5b9060005260206000200154905092915050565b8154600090819083106128f45760405162461bcd60e51b8152600401808060200182810382526022815260200180613ace6022913960400191505060405180910390fd5b600084600001848154811061290557fe5b906000526020600020906002020190508060000154816001015492509250509250929050565b600082815260018401602052604081205482816129c65760405162461bcd60e51b81526004018080602001828103825283818151815260200191508051906020019080838360005b8381101561298b578181015183820152602001612973565b50505050905090810190601f1680156129b85780820380516001836020036101000a031916815260200191505b509250505060405180910390fd5b508460000160018203815481106129d957fe5b9060005260206000209060020201600101549150509392505050565b6000612a09846001600160a01b0316612e4a565b612a1557506001611160565b6000612b23630a85bd0160e11b612a2a6123ca565b88878760405160240180856001600160a01b03168152602001846001600160a01b0316815260200183815260200180602001828103825283818151815260200191508051906020019080838360005b83811015612a91578181015183820152602001612a79565b50505050905090810190601f168015612abe5780820380516001836020036101000a031916815260200191505b5095505050505050604051602081830303815290604052906001600160e01b0319166020820180516001600160e01b03838183161783525050505060405180606001604052806032815260200161399b603291396001600160a01b0388169190612e50565b90506000818060200190516020811015612b3c57600080fd5b50516001600160e01b031916630a85bd0160e11b1492505050949350505050565b6001600160a01b038216612bb8576040805162461bcd60e51b815260206004820181905260248201527f4552433732313a206d696e7420746f20746865207a65726f2061646472657373604482015290519081900360640190fd5b612bc1816123ec565b15612c13576040805162461bcd60e51b815260206004820152601c60248201527f4552433732313a20746f6b656e20616c7265616479206d696e74656400000000604482015290519081900360640190fd5b612c1f600083836109b3565b6001600160a01b0382166000908152600160205260409020612c41908261282a565b50612c4e60028284612836565b5060405181906001600160a01b038416906000907fddf252ad1be2c89b69c2b068fc378daa952ba7f163c4a11628f55a4df523b3ef908290a45050565b60009081526001919091016020526040902054151590565b60008181526001830160205260408120548015612d5f5783546000198083019190810190600090879083908110612cd657fe5b9060005260206000200154905080876000018481548110612cf357fe5b600091825260208083209091019290925582815260018981019092526040902090840190558654879080612d2357fe5b60019003818190600052602060002001600090559055866001016000878152602001908152602001600020600090556001945050505050610daa565b6000915050610daa565b6000612d758383612c8b565b612dab57508154600181810184556000848152602080822090930184905584548482528286019093526040902091909155610daa565b506000610daa565b600082815260018401602052604081205480612e185750506040805180820182528381526020808201848152865460018181018955600089815284812095516002909302909501918255915190820155865486845281880190925292909120556121fc565b82856000016001830381548110612e2b57fe5b90600052602060002090600202016001018190555060009150506121fc565b3b151590565b6060611160848460008585612e6485612e4a565b612eb5576040805162461bcd60e51b815260206004820152601d60248201527f416464726573733a2063616c6c20746f206e6f6e2d636f6e7472616374000000604482015290519081900360640190fd5b600080866001600160a01b031685876040518082805190602001908083835b60208310612ef35780518252601f199092019160209182019101612ed4565b6001836020036101000a03801982511681845116808217855250505050505090500191505060006040518083038185875af1925050503d8060008114612f55576040519150601f19603f3d011682016040523d82523d6000602084013e612f5a565b606091505b5091509150612f6a828286612f75565b979650505050505050565b60608315612f845750816121fc565b825115612f945782518084602001fd5b60405162461bcd60e51b815260206004820181815284516024840152845185939192839260440191908501908083836000831561298b578181015183820152602001612973565b828054600181600116156101000203166002900490600052602060002090601f0160209004810192826130115760008555613057565b82601f1061302a57805160ff1916838001178555613057565b82800160010185558215613057579182015b8281111561305757825182559160200191906001019061303c565b506130639291506130fc565b5090565b60405180608001604052806000815260200160006001600160a01b0316815260200160008152602001600081525090565b60408051808201909152606081526000602082015290565b6040805161012081018252600080825260208201819052918101829052606081018290526080810182905260a0810182905260c0810182905260e0810182905261010081019190915290565b5b8082111561306357600081556001016130fd565b600061312461311f84613915565b6138f1565b905082815283838301111561313857600080fd5b828260208301376000602084830101529392505050565b600082601f83011261315f578081fd5b610da783833560208501613111565b60006020828403121561317f578081fd5b81356121fc81613963565b60006020828403121561319b578081fd5b81516121fc81613963565b600080604083850312156131b8578081fd5b82356131c381613963565b915060208301356131d381613963565b809150509250929050565b6000806000606084860312156131f2578081fd5b83356131fd81613963565b9250602084013561320d81613963565b929592945050506040919091013590565b60008060008060808587031215613233578081fd5b843561323e81613963565b9350602085013561324e81613963565b925060408501359150606085013567ffffffffffffffff811115613270578182fd5b8501601f81018713613280578182fd5b61328f87823560208401613111565b91505092959194509250565b600080604083850312156132ad578182fd5b82356132b881613963565b9150602083013580151581146131d3578182fd5b600080604083850312156132de578182fd5b82356132e981613963565b946020939093013593505050565b600060208284031215613308578081fd5b81356001600160e01b0319811681146121fc578182fd5b600060208284031215613330578081fd5b815167ffffffffffffffff811115613346578182fd5b8201601f81018413613356578182fd5b805161336461311f82613915565b818152856020838501011115613378578384fd5b611727826020830160208601613937565b6000806040838503121561339b578182fd5b823567ffffffffffffffff8111156133b1578283fd5b6133bd8582860161314f565b95602094909401359450505050565b6000602082840312156133dd578081fd5b5035919050565b6000602082840312156133f5578081fd5b5051919050565b6000806040838503121561340e578182fd5b8235915060208301356131d381613963565b60008060008060808587031215613435578182fd5b84359350602085013567ffffffffffffffff80821115613453578384fd5b61345f8883890161314f565b94506040870135915080821115613474578384fd5b6134808883890161314f565b93506060870135915080821115613495578283fd5b5061328f8782880161314f565b600080604083850312156134b4578182fd5b50508035926020909101359150565b6001600160a01b03169052565b15159052565b600081518084526134ee816020860160208601613937565b601f01601f19169290920160200192915050565b6001600160a01b0391909116815260200190565b6001600160a01b03929092168252602082015260400190565b6001600160a01b039384168152919092166020820152604081019190915260600190565b901515815260200190565b600060208252610da760208301846134d6565b602080825260139082015272151bdad95b88191bd95cdb89dd08195e1a5cdd606a1b604082015260600190565b6020808252601a908201527f5468697320746f6b656e206973206e6f7420666f722073616c65000000000000604082015260600190565b6020808252602c908201527f43616e6e6f742073746172742061756374696f6e20666f7220746f6b656e207960408201526b37ba903237b713ba1037bbb760a11b606082015260800190565b60208082526018908201527f426964207072696365206d757374206265206869676865720000000000000000604082015260600190565b602080825260159082015274105d58dd1a5bdb88191bd95cdb89dd08195e1a5cdd605a1b604082015260600190565b6020808252600f908201526e496e636f72726563742076616c756560881b604082015260600190565b6020808252601d908201527f5468652061756374696f6e20686173206e6f7420656e64656420796574000000604082015260600190565b602080825260159082015274151a1948185d58dd1a5bdb881a185cc8195b991959605a1b604082015260600190565b602080825260119082015270486967686572206269642065786973747360781b604082015260600190565b815181526020808301516001600160a01b031690820152604080830151610120830191613770908401826134d0565b50606083015161378360608401826134d0565b506080830151608083015260a083015160a083015260c08301516137aa60c08401826134c3565b5060e083015160e0830152610100808401516137c8828501826134d0565b505092915050565b815181526020808301516001600160a01b031690820152604080830151908201526060918201519181019190915260800190565b60006020825282516040602084015261382060608401826134d6565b90506020840151151560408401528091505092915050565b90815260200190565b9182526001600160a01b0316602082015260400190565b9283526001600160a01b03919091166020830152604082015260600190565b918252602082015260400190565b6000602082528251602083015260208301516040830152604083015160a060608401526138b560c08401826134d6565b90506060840151601f19808584030160808601526138d383836134d6565b925060808601519150808584030160a08601525061172782826134d6565b60405181810167ffffffffffffffff8111828210171561390d57fe5b604052919050565b600067ffffffffffffffff82111561392957fe5b50601f01601f191660200190565b60005b8381101561395257818101518382015260200161393a565b838111156117f05750506000910152565b6001600160a01b03811681146106c357600080fdfe456e756d657261626c655365743a20696e646578206f7574206f6620626f756e64734552433732313a207472616e7366657220746f206e6f6e20455243373231526563656976657220696d706c656d656e7465724f776e61626c653a206e6577206f776e657220697320746865207a65726f20616464726573734552433732313a207472616e7366657220746f20746865207a65726f20616464726573734552433732313a206f70657261746f7220717565727920666f72206e6f6e6578697374656e7420746f6b656e4552433732313a20617070726f76652063616c6c6572206973206e6f74206f776e6572206e6f7220617070726f76656420666f7220616c6c4552433732313a2062616c616e636520717565727920666f7220746865207a65726f20616464726573734552433732313a206f776e657220717565727920666f72206e6f6e6578697374656e7420746f6b656e456e756d657261626c654d61703a20696e646578206f7574206f6620626f756e64734552433732313a20617070726f76656420717565727920666f72206e6f6e6578697374656e7420746f6b656e4552433732313a207472616e73666572206f6620746f6b656e2074686174206973206e6f74206f776e4552433732314d657461646174613a2055524920717565727920666f72206e6f6e6578697374656e7420746f6b656e4552433732313a20617070726f76616c20746f2063757272656e74206f776e65724552433732313a207472616e736665722063616c6c6572206973206e6f74206f776e6572206e6f7220617070726f766564a2646970667358221220a00724b344c1743e8ba3aefdc3df36f0c62e79b9f6ab6ab0d9cff3a34bf9882764736f6c63430007060033",
  "immutableReferences": {},
  "source": "pragma solidity >=0.4.22 <0.8.0;\r\npragma experimental ABIEncoderV2;\r\n\r\nimport \"@openzeppelin/contracts/token/ERC721/ERC721.sol\";\r\nimport \"@openzeppelin/contracts/access/Ownable.sol\";\r\n\r\nimport \"./GenerativeNFT.sol\";\r\n\r\nlibrary IterableMapping {\r\n    // Iterable mapping from address to uint;\r\n    struct Map {\r\n        address[] keys;\r\n        mapping(address => uint256) values;\r\n        mapping(address => uint256) indexOf;\r\n        mapping(address => bool) inserted;\r\n    }\r\n\r\n    function get(Map storage map, address key) public view returns (uint256) {\r\n        return map.values[key];\r\n    }\r\n\r\n    function getKeyAtIndex(Map storage map, uint256 index)\r\n        public\r\n        view\r\n        returns (address)\r\n    {\r\n        return map.keys[index];\r\n    }\r\n\r\n    function size(Map storage map) public view returns (uint256) {\r\n        return map.keys.length;\r\n    }\r\n\r\n    function set(\r\n        Map storage map,\r\n        address key,\r\n        uint256 val\r\n    ) public {\r\n        if (map.inserted[key]) {\r\n            map.values[key] = val;\r\n        } else {\r\n            map.inserted[key] = true;\r\n            map.values[key] = val;\r\n            map.indexOf[key] = map.keys.length;\r\n            map.keys.push(key);\r\n        }\r\n    }\r\n\r\n    function remove(Map storage map, address key) public {\r\n        if (!map.inserted[key]) {\r\n            return;\r\n        }\r\n\r\n        delete map.inserted[key];\r\n        delete map.values[key];\r\n\r\n        uint256 index = map.indexOf[key];\r\n        uint256 lastIndex = map.keys.length - 1;\r\n        address lastKey = map.keys[lastIndex];\r\n\r\n        map.indexOf[lastKey] = index;\r\n        delete map.indexOf[key];\r\n\r\n        map.keys[index] = lastKey;\r\n        map.keys.pop();\r\n    }\r\n}\r\n\r\ncontract LuvNFT is ERC721, Ownable {\r\n    using IterableMapping for IterableMapping.Map;\r\n\r\n    constructor() public ERC721(\"WorldNFT\", \"WNFT\") {}\r\n\r\n    struct Location {\r\n        string nft_info; //contains name, long and lati \r\n        bool isExist;\r\n    }\r\n    struct Auction {\r\n        uint256 tokenId;\r\n        address beneficiary;\r\n        bool auctionGoingOn;\r\n        bool auctionEnded;\r\n        uint256 auctionEndTime;\r\n        uint256 biddingTime;\r\n        address highestBidder;\r\n        uint256 highestBid;\r\n        bool isExist;\r\n    }\r\n    struct Bid {\r\n        uint256 tokenId;\r\n        address bidder;\r\n        uint256 bidValue;\r\n        uint256 timeBid;\r\n    }\r\n\r\n    uint256 public nextId = 0;\r\n    uint256 public acceptedBidsIdx = 0;\r\n\r\n    event NftBought(address _seller, address _buyer, uint256 _price);\r\n    event AuctionStarted(address ownerAddress, uint256 _biddingTime);\r\n    event BidIncrease(address bidAddress, uint256 bidValue);\r\n    event AuctionEnded(address bidAddress, uint256 bidValue);\r\n    event BidRejected(address bidAddress, uint256 bidValue);\r\n    event BidWithdrawn(address bidAddress, uint256 bidValue);\r\n\r\n    mapping(uint256 => Location) private _locationDetails;\r\n    mapping(uint256 => uint256) public tokenIdToPrice;\r\n    mapping(uint256 => Auction) private _auctions;\r\n    mapping(uint256 => Bid) private _biddingLogs;\r\n\r\n    // IterableMapping.Map private _pendingReturns;\r\n    mapping(uint256 => IterableMapping.Map) private _tokenPendingReturns;\r\n\r\n    function getTokenDetails(uint256 tokenId)\r\n        public\r\n        view\r\n        returns (Location memory)\r\n    {\r\n        return _locationDetails[tokenId];\r\n    }\r\n\r\n\t\t//create svg file automatically.\r\n    function getSVG(\r\n        uint256 tokenId,\r\n        string memory latitude,\r\n        string memory longitude,\r\n        string memory name\r\n    ) public view returns (string memory) {\r\n        return\r\n            NFTDescriptor.constructTokenURI(\r\n                NFTDescriptor.URIParams({\r\n                    tokenId: tokenId,\r\n                    blockNumber: block.number,\r\n                    latitude: latitude,\r\n                    longitude: longitude,\r\n                    name: name\r\n                })\r\n            );\r\n    }\r\n\r\n    function getPriceOf(uint256 tokenId) public view returns (uint256) {\r\n        return tokenIdToPrice[tokenId];\r\n    }\r\n\r\n    function getOwnerOf(uint256 tokenId) public view returns (address) {\r\n        return ownerOf(tokenId);\r\n    }\r\n\r\n    function getAuctionInfo(uint256 tokenId)\r\n        public\r\n        view\r\n        returns (Auction memory)\r\n    {\r\n        return _auctions[tokenId];\r\n    }\r\n\r\n    function getBiddingLog(uint256 bidId) public view returns (Bid memory) {\r\n        return _biddingLogs[bidId];\r\n    }\r\n\r\n    function getPendingReturnsCount(uint256 tokenId)\r\n        public\r\n        view\r\n        returns (uint256)\r\n    {\r\n        IterableMapping.Map storage pendingReturnForIdx = _tokenPendingReturns[\r\n            tokenId\r\n        ];\r\n        return pendingReturnForIdx.size();\r\n    }\r\n\r\n    function getPendingReturnValue(uint256 tokenId, address addr)\r\n        public\r\n        view\r\n        returns (uint256)\r\n    {\r\n        IterableMapping.Map storage pendingReturnForIdx = _tokenPendingReturns[\r\n            tokenId\r\n        ];\r\n        return pendingReturnForIdx.get(addr);\r\n    }\r\n\r\n    function mint(string memory nft_info, uint256 price)\r\n        public\r\n        onlyOwner\r\n    {\r\n        _locationDetails[nextId] = Location(nft_info, true);\r\n        // tokenIdToPrice[nextId] = 2000000000000000000; //1 ONE=1e18 wei\r\n        tokenIdToPrice[nextId] = price; //1 ONE=1e18 wei\r\n        _safeMint(msg.sender, nextId);\r\n        nextId++;\r\n    }\r\n\r\n    function buy(uint256 _tokenId) external payable {\r\n        uint256 price = tokenIdToPrice[_tokenId];\r\n        require(price > 0, \"This token is not for sale\");\r\n        require(msg.value == price, \"Incorrect value\");\r\n        address seller = ownerOf(_tokenId);\r\n        _transfer(seller, msg.sender, _tokenId);\r\n        tokenIdToPrice[_tokenId] = 0;\r\n        payable(seller).transfer(msg.value);\r\n        emit NftBought(seller, msg.sender, msg.value);\r\n    }\r\n\r\n    function startAuction(uint256 _tokenId, uint256 _biddingTime) external {\r\n        uint256 auctionEndTime = block.timestamp + _biddingTime;\r\n        require(_locationDetails[_tokenId].isExist, \"Token doesn't exist\");\r\n        require(\r\n            msg.sender == ownerOf(_tokenId),\r\n            \"Cannot start auction for token you don't own\"\r\n        );\r\n        if (_auctions[_tokenId].isExist && !_auctions[_tokenId].auctionEnded) {\r\n            revert(\"The auction has not ended yet\");\r\n        }\r\n        _auctions[_tokenId] = Auction(\r\n            _tokenId,\r\n            msg.sender,\r\n            true,\r\n            false,\r\n            auctionEndTime,\r\n            _biddingTime,\r\n            address(0x0),\r\n            0,\r\n            true\r\n        );\r\n        emit AuctionStarted(msg.sender, _biddingTime);\r\n    }\r\n\r\n    function endAuction(uint256 _tokenId) external {\r\n        Auction memory auc = getAuctionInfo(_tokenId);\r\n        require(auc.isExist, \"Auction doesn't exist\");\r\n        if (block.timestamp < auc.auctionEndTime) {\r\n            revert(\"The auction has not ended yet\");\r\n        }\r\n        if (auc.auctionEnded) {\r\n            revert(\"The auction has ended\");\r\n        }\r\n        IterableMapping.Map storage pr = _tokenPendingReturns[_tokenId];\r\n        if (auc.highestBid == 0) {\r\n            auc.auctionEnded = true;\r\n            auc.auctionGoingOn = false;\r\n            _auctions[_tokenId] = auc;\r\n            emit AuctionEnded(auc.highestBidder, auc.highestBid);\r\n        } else {\r\n            auc.auctionEnded = true;\r\n            auc.auctionGoingOn = false;\r\n            payable(auc.beneficiary).transfer(auc.highestBid);\r\n            _transfer(auc.beneficiary, auc.highestBidder, _tokenId);\r\n            auc.beneficiary = auc.highestBidder;\r\n            _auctions[_tokenId] = auc;\r\n            tokenIdToPrice[_tokenId] = auc.highestBid;\r\n            pr.set(auc.highestBidder, 0);\r\n            emit AuctionEnded(auc.highestBidder, auc.highestBid);\r\n        }\r\n\r\n        for (uint256 i = 0; i < pr.size(); i++) {\r\n            address returnAddr = pr.getKeyAtIndex(i);\r\n            uint256 returnVal = getPendingReturnValue(_tokenId, returnAddr);\r\n            if (returnVal > 0) {\r\n                payable(returnAddr).transfer(returnVal);\r\n                emit BidRejected(returnAddr, returnVal);\r\n            }\r\n        }\r\n    }\r\n\r\n    function placeBid(uint256 _tokenId) external payable {\r\n        Auction memory auc = getAuctionInfo(_tokenId);\r\n        require(auc.isExist, \"Auction doesn't exist\");\r\n        require(\r\n            msg.value > tokenIdToPrice[_tokenId],\r\n            \"Bid price must be higher\"\r\n        );\r\n        if (msg.value <= auc.highestBid) {\r\n            revert(\"Higher bid exists\");\r\n        }\r\n        auc.highestBid = msg.value;\r\n        auc.highestBidder = msg.sender;\r\n        _auctions[_tokenId] = auc;\r\n        IterableMapping.Map storage pr = _tokenPendingReturns[_tokenId];\r\n        pr.set(msg.sender, msg.value);\r\n        emit BidIncrease(msg.sender, msg.value);\r\n\r\n        //Log bid into bidHistory\r\n        _biddingLogs[acceptedBidsIdx] = Bid(\r\n            _tokenId,\r\n            msg.sender,\r\n            msg.value,\r\n            block.timestamp\r\n        );\r\n        acceptedBidsIdx++;\r\n    }\r\n\r\n    function withdrawBid(uint256 _tokenId) external payable {\r\n        Auction memory auc = getAuctionInfo(_tokenId);\r\n        require(auc.isExist, \"Auction doesn't exist\");\r\n        IterableMapping.Map storage pr = _tokenPendingReturns[_tokenId];\r\n        uint256 nextHighestBid = 0;\r\n        for (uint256 i = 0; i < pr.size(); i++) {\r\n            address returnAddr = pr.getKeyAtIndex(i);\r\n            uint256 returnVal = getPendingReturnValue(_tokenId, returnAddr);\r\n            if (returnVal > 0) {\r\n                if (returnAddr == msg.sender) {\r\n                    payable(returnAddr).transfer(returnVal);\r\n                    pr.remove(returnAddr);\r\n                    emit BidWithdrawn(returnAddr, returnVal);\r\n                } else {\r\n                    if (nextHighestBid < returnVal) {\r\n                        auc.highestBid = returnVal;\r\n                        auc.highestBidder = returnAddr;\r\n                        nextHighestBid = returnVal;\r\n                    }\r\n                }\r\n            }\r\n        }\r\n        if (nextHighestBid == 0) {\r\n            auc.highestBid = 0;\r\n            auc.highestBidder = address(0);\r\n        }\r\n        //set highest bid as the next highest\r\n        _auctions[_tokenId] = auc;\r\n    }\r\n\r\n    function increaseBid(uint256 _tokenId) external payable {}\r\n\r\n    function _beforeTokenTransfer(\r\n        address from,\r\n        address to,\r\n        uint256 tokenId\r\n    ) internal override {}\r\n}\r\n",
  "sourcePath": "D:\\job\\NFT\\test\\luv-nft-estate\\truffle\\contracts\\LuvNFT.sol",
  "compiler": {
    "name": "solc",
    "version": "0.7.6+commit.7338295f.Emscripten.clang"
  },
  "schemaVersion": "3.4.3",
  "updatedAt": "2022-02-19T09:34:43.848Z",
  "devdoc": {
    "kind": "dev",
    "methods": {
      "approve(address,uint256)": {
        "details": "See {IERC721-approve}."
      },
      "balanceOf(address)": {
        "details": "See {IERC721-balanceOf}."
      },
      "baseURI()": {
        "details": "Returns the base URI set via {_setBaseURI}. This will be automatically added as a prefix in {tokenURI} to each token's URI, or to the token ID if no specific URI is set for that token ID."
      },
      "getApproved(uint256)": {
        "details": "See {IERC721-getApproved}."
      },
      "isApprovedForAll(address,address)": {
        "details": "See {IERC721-isApprovedForAll}."
      },
      "name()": {
        "details": "See {IERC721Metadata-name}."
      },
      "owner()": {
        "details": "Returns the address of the current owner."
      },
      "ownerOf(uint256)": {
        "details": "See {IERC721-ownerOf}."
      },
      "renounceOwnership()": {
        "details": "Leaves the contract without owner. It will not be possible to call `onlyOwner` functions anymore. Can only be called by the current owner. NOTE: Renouncing ownership will leave the contract without an owner, thereby removing any functionality that is only available to the owner."
      },
      "safeTransferFrom(address,address,uint256)": {
        "details": "See {IERC721-safeTransferFrom}."
      },
      "safeTransferFrom(address,address,uint256,bytes)": {
        "details": "See {IERC721-safeTransferFrom}."
      },
      "setApprovalForAll(address,bool)": {
        "details": "See {IERC721-setApprovalForAll}."
      },
      "supportsInterface(bytes4)": {
        "details": "See {IERC165-supportsInterface}. Time complexity O(1), guaranteed to always use less than 30 000 gas."
      },
      "symbol()": {
        "details": "See {IERC721Metadata-symbol}."
      },
      "tokenByIndex(uint256)": {
        "details": "See {IERC721Enumerable-tokenByIndex}."
      },
      "tokenOfOwnerByIndex(address,uint256)": {
        "details": "See {IERC721Enumerable-tokenOfOwnerByIndex}."
      },
      "tokenURI(uint256)": {
        "details": "See {IERC721Metadata-tokenURI}."
      },
      "totalSupply()": {
        "details": "See {IERC721Enumerable-totalSupply}."
      },
      "transferFrom(address,address,uint256)": {
        "details": "See {IERC721-transferFrom}."
      },
      "transferOwnership(address)": {
        "details": "Transfers ownership of the contract to a new account (`newOwner`). Can only be called by the current owner."
      }
    },
    "version": 1
  },
  "userdoc": {
    "kind": "user",
    "methods": {},
    "version": 1
  }
}