{
  "contractName": "NFTDescriptor",
  "abi": [
    {
      "inputs": [
        {
          "components": [
            {
              "internalType": "uint256",
              "name": "tokenId",
              "type": "uint256"
            },
            {
              "internalType": "uint256",
              "name": "blockNumber",
              "type": "uint256"
            },
            {
              "internalType": "string",
              "name": "latitude",
              "type": "string"
            },
            {
              "internalType": "string",
              "name": "longitude",
              "type": "string"
            },
            {
              "internalType": "string",
              "name": "name",
              "type": "string"
            }
          ],
          "internalType": "struct NFTDescriptor.URIParams",
          "name": "params",
          "type": "tuple"
        }
      ],
      "name": "constructTokenURI",
      "outputs": [
        {
          "internalType": "string",
          "name": "",
          "type": "string"
        }
      ],
      "stateMutability": "view",
      "type": "function"
    }
  ],
  "bytecode": "0x61172c610026600b82828239805160001a60731461001957fe5b30600052607381538281f3fe73000000000000000000000000000000000000000030146080604052600436106100355760003560e01c80630e1d809e1461003a575b600080fd5b61004d610048366004610778565b610063565b60405161005a919061162f565b60405180910390f35b60606000826080015160405160200161007c9190610a24565b60405160208183030381529060405290506000610097610104565b905060006100ac6100a786610129565b6101ff565b90506100da8383836040516020016100c693929190610a4c565b6040516020818303038152906040526101ff565b6040516020016100ea9190611586565b60405160208183030381529060405293505050505b919050565b606060405160200161011590610c38565b604051602081830303815290604052905090565b606060006040518060e0016040528084600001518152602001846020015181526020018460400151815260200184606001518152602001846080015181526020016101a8856040015186606001516040516020016101889291906109a1565b6040516020818303038152906040528051906020012060001c608861034b565b81526020016101eb856040015186606001516040516020016101cb9291906109a1565b6040516020818303038152906040528051906020012060001c600061034b565b905290506101f881610365565b9392505050565b606081516000141561022057506040805160208101909152600081526100ff565b60006040518060600160405280604081526020016116b76040913990506000600384516002018161024d57fe5b04600402905060008160200167ffffffffffffffff8111801561026f57600080fd5b506040519080825280601f01601f19166020018201604052801561029a576020820181803683370190505b509050818152600183018586518101602084015b81831015610306576003830192508251603f8160121c168501518253600182019150603f81600c1c168501518253600182019150603f8160061c168501518253600182019150603f81168501518253506001016102ae565b60038951066001811461032057600281146103315761033d565b613d3d60f01b60011983015261033d565b603d60f81b6000198301525b509398975050505050505050565b90811b90606061035c8360036103b3565b90505b92915050565b60606103708261046d565b61037983610492565b61038b846000015185604001516104ad565b60405160200161039d939291906109d0565b6040516020818303038152906040529050919050565b606060008260020267ffffffffffffffff811180156103d157600080fd5b506040519080825280601f01601f1916602001820160405280156103fc576020820181803683370190505b5080519091505b8015610465576f181899199a1a9b1b9c1cb0b131b232b360811b85600f166010811061042b57fe5b1a60f81b82600183038151811061043e57fe5b60200101906001600160f81b031916908160001a90535060049490941c9360001901610403565b509392505050565b6060610478826104f9565b61048183610588565b60405160200161039d929190610b13565b606061049d826105ff565b60405160200161039d9190611030565b60606104b98383610630565b156104e3576040516020016104cd906115cb565b604051602081830303815290604052905061035f565b5060408051602081019091526000815292915050565b606060008260a001518360c0015160405160200161051892919061153b565b604051602081830303815290604052905060008360c001518460a0015160405160200161054692919061153b565b60405160208183030381529060405290508360a00151828260405160200161057093929190610db3565b60405160208183030381529060405292505050919050565b606060008260a001518360c001516040516020016105a792919061153b565b604051602081830303815290604052905060008360c001518460a001516040516020016105d592919061153b565b60405160208183030381529060405290508360c00151818360405160200161057093929190610c87565b606081608001516106138360200151610638565b835161061e90610638565b60405160200161039d93929190610eff565b600092915050565b60608161065d57506040805180820190915260018152600360fc1b60208201526100ff565b8160005b811561067557600101600a82049150610661565b60008167ffffffffffffffff8111801561068e57600080fd5b506040519080825280601f01601f1916602001820160405280156106b9576020820181803683370190505b50859350905060001982015b831561070a57600a840660300160f81b828280600190039350815181106106e857fe5b60200101906001600160f81b031916908160001a905350600a840493506106c5565b50949350505050565b600082601f830112610723578081fd5b813567ffffffffffffffff81111561073757fe5b61074a601f8201601f1916602001611662565b81815284602083860101111561075e578283fd5b816020850160208301379081016020019190915292915050565b600060208284031215610789578081fd5b813567ffffffffffffffff808211156107a0578283fd5b9083019060a082860312156107b3578283fd5b6107bd60a0611662565b82358152602083013560208201526040830135828111156107dc578485fd5b6107e887828601610713565b6040830152506060830135828111156107ff578485fd5b61080b87828601610713565b606083015250608083013582811115610822578485fd5b61082e87828601610713565b60808301525095945050505050565b7f3c7265637420783d22302220793d2230222077696474683d223531322220686581527f696768743d22353132222072783d223235222072793d223235222066696c6c3d60208201527f227267626128302c302c302c302922207374726f6b653d22726762612832353560408201527516191a9a96191a9a9618171a14911f1e17b932b1ba1f60511b606082015260760190565b7f2220626567696e3d2261332e656e6422206475723d22337322202f3e3c2f737481526237b81f60e91b602082015260230190565b7f3c7265637420783d2231362220793d223136222077696474683d22343830222081527f6865696768743d22343830222072783d223136222072793d223136222066696c60208201527f6c3d227267626128302c302c302c302922207374726f6b653d2272676261283260408201527f35352c3235352c3235352c302e3429223e3c2f726563743e0000000000000000606082015260780190565b600083516109b3818460208801611686565b8351908301906109c7818360208801611686565b01949350505050565b600084516109e2818460208901611686565b8451908301906109f6818360208901611686565b8451910190610a09818360208801611686565b651e17b9bb339f60d11b910190815260060195945050505050565b60008251610a36818460208701611686565b630813919560e21b920191825250600401919050565b683d913730b6b2911d1160b91b81528351600090610a71816009850160208901611686565b71111610113232b9b1b934b83a34b7b7111d1160711b6009918401918201528451610aa381601b840160208901611686565b6c1116101134b6b0b3b2911d101160991b601b92909101918201527f646174613a696d6167652f7376672b786d6c3b6261736536342c00000000000060288201528351610af7816042840160208801611686565b61227d60f01b6042929091019182015260440195945050505050565b60007f3c7376672077696474683d2235313222206865696768743d223531322220766982527f6577426f783d223020302035313220353132222066696c6c3d226e6f6e65222060208301527f786d6c6e733d22687474703a2f2f7777772e77332e6f72672f323030302f737660408301526233911f60e91b6060830152651e3232b3399f60d11b60638301527f3c6c696e6561724772616469656e742069643d226731222078313d22302522206069830152693c989e911a981291101f60b11b60898301528351610beb816093850160208801611686565b835190830190610c02816093840160208801611686565b7f3c2f6c696e6561724772616469656e743e3c2f646566733e00000000000000006093929091019182015260ab01949350505050565b7f54686973204e465420726570726573656e7473206120746f702032303020636981527f7469657320696e2074686520706c616e65742045617274685c6e0000000000006020820152603a0190565b60007f3c73746f70206f66667365743d2231303025222073746f702d636f6c6f723d228252602360f81b60208301528451610cc9816021850160208901611686565b6211101f60e91b6021918401918201527f3c616e696d6174652069643d22613322206174747269627574654e616d653d2260248201527339ba37b816b1b7b637b911103b30b63ab2b99e9160611b604482018190528551610d31816058850160208a01611686565b7f2220626567696e3d22303b2061342e656e6422206475723d22337322202f3e00605893909101928301527f3c616e696d6174652069643d22613422206174747269627574654e616d653d22607783015260978201528351610d9a8160ab840160208801611686565b610da860ab828401016108d1565b979650505050505050565b60007f3c73746f70206f66667365743d223025222073746f702d636f6c6f723d22230082528451610deb81601f850160208901611686565b6211101f60e91b601f918401918201527f3c616e696d6174652069643d22613122206174747269627574654e616d653d2260228201527339ba37b816b1b7b637b911103b30b63ab2b99e9160611b604282018190528551610e53816056850160208a01611686565b7f2220626567696e3d22303b2061322e656e6422206475723d22337322202f3e00605693909101928301527f3c616e696d6174652069643d22613222206174747269627574654e616d653d22607583015260958201528351610ebc8160a9840160208801611686565b7f2220626567696e3d2261312e656e6422206475723d22337322202f3e3c2f737460a992909101918201526237b81f60e91b60c982015260cc0195945050505050565b60007f3c672066696c6c3d2277686974652220666f6e742d66616d696c793d22436f7582527f72696572204e65772c206d6f6e6f7370616365223e3c7465787420666f6e742d60208301527f73697a653d2233362220783d2233302220793d223630223e000000000000000060408301528451610f83816058850160208901611686565b7f3c2f746578743e3c7465787420783d2233302220793d22343430223e426c6f63605891840191820152636b3a202360e01b60788201528451610fcd81607c840160208901611686565b7f3c2f746578743e3c7465787420783d2233302220793d22343730223e49443a20607c9290910191820152835161100b81609c840160208801611686565b6a1e17ba32bc3a1f1e17b39f60a91b609c929091019182015260a70195945050505050565b60007f3c726563742069643d22722220783d22302220793d2230222072783d2232362282527f2072793d223236222077696474683d2235313222206865696768743d2235313260208301527311103334b6361e913ab9361411b398949110179f60611b604083015282516110ab816054850160208701611686565b7f3c672066696c6c3d227267626128302c302c302c302e362922207374796c653d6054918401918201527f227472616e73666f726d3a207472616e736c617465283333252c333325293b226074820152601f60f91b60948201527f3c7061746820786d6c6e733d22687474703a2f2f7777772e77332e6f72672f3260958201527f3030302f737667222069643d2253686170652220643d224d3230312e31372c3660b58201527f306133382e38312c33382e38312c302c302c302d33382e38342c33382e37317660d58201527f34322e3932632d342c2e32372d382e30392e34342d31322e33332c302e34347360f58201527f2d382e33312e31372d31322e33332c302e34315639382e37316133382e38342c6101158201527f33382e38342c302c302c302d37372e36372c30563230312e32396133382e38346101358201527f2c33382e38342c302c302c302c37372e36372c30563135382e333763342d2e326101558201527f372c382e30392d302e34342c31322e33332d302e343473382e33312d2e31372c6101758201527f31322e33332d302e34317634332e37376133382e38342c33382e38342c302c306101958201527f2c302c37372e36372c305639382e37314133382e38312c33382e38312c302c306101b58201527f2c302c3230312e31372c36305a4d39382e38332c37352e38366132322e39312c6101d58201527f32322e39312c302c302c312c32322e39322c32322e38357634352e34356131336101f58201527f302e36342c3133302e36342c302c302c302d33332c392e33332c36302c36302c6102158201527f302c302c302d31322e382c372e36345639382e37314132322e39312c32322e396102358201527f312c302c302c312c39382e38332c37352e38365a6d32322e39322c3132352e346102558201527f336132322e39322c32322e39322c302c312c312d34352e38342c3056313931636102758201527f302d392e30392c372e322d31372e372c31392e32372d32332e3036613131332c6102958201527f3131332c302c302c312c32362e35372d372e37377634312e31325a6d37392e346102b58201527f322c32322e38356132322e39312c32322e39312c302c302c312d32322e39322d6102d58201527f32322e3835563135352e3834613133302e36342c3133302e36342c302c302c306102f58201527f2c33332d392e33332c36302c36302c302c302c302c31322e382d372e363476366103158201527f322e34324132322e39312c32322e39312c302c302c312c3230312e31372c32326103358201527f342e31345a4d3230342e38322c313332613131332c3131332c302c302c312d326103558201527f362e35372c372e37375639382e37316132322e39322c32322e39322c302c312c6103758201527f312c34352e38342c3056313039433232342e30392c3131382e30352c3231362e6103958201527f38392c3132362e36362c3230342e38322c3133325a22207472616e73666f726d6103b58201527f3d227472616e736c617465282d3630202d363029222f3e3c2f673e00000000006103d582015261153361152e6103f08301610906565b61083d565b949350505050565b6000602360f81b82528351611557816001850160208801611686565b623b202360e81b600191840191820152835161157a816004840160208801611686565b01600401949350505050565b60007f646174613a6170706c69636174696f6e2f6a736f6e3b6261736536342c000000825282516115be81601d850160208701611686565b91909101601d0192915050565b7f3c7265637420783d2231362220793d223136222077696474683d22323538222081527f6865696768743d22343638222072783d223235222072793d223235222066696c60208201526b361e91313630b1b59110179f60a11b6040820152604c0190565b600060208252825180602084015261164e816040850160208701611686565b601f01601f19169190910160400192915050565b60405181810167ffffffffffffffff8111828210171561167e57fe5b604052919050565b60005b838110156116a1578181015183820152602001611689565b838111156116b0576000848401525b5050505056fe4142434445464748494a4b4c4d4e4f505152535455565758595a6162636465666768696a6b6c6d6e6f707172737475767778797a303132333435363738392b2fa26469706673582212205fa27736aa59834e6142853492e91bcbdba2c7a6de355a9877829c281c3003ac64736f6c63430007060033",
  "immutableReferences": {},
  "source": "// SPDX-License-Identifier: MIT\npragma solidity ^0.7.6;\npragma abicoder v2;\n\nimport '@openzeppelin/contracts/utils/Strings.sol';\nimport '@openzeppelin/contracts/math/SafeMath.sol';\nimport '@openzeppelin/contracts/math/SignedSafeMath.sol';\nimport 'base64-sol/base64.sol';\nimport './HexStrings.sol';\nimport './NFTSVG.sol';\n\nlibrary NFTDescriptor {\n    using Strings for uint256;\n    using SafeMath for uint256;\n    using SafeMath for uint160;\n    using SafeMath for uint8;\n    using SignedSafeMath for int256;\n    using HexStrings for uint256;\n\n    struct URIParams {\n        uint256 tokenId;\n        uint256 blockNumber;\n        string latitude;\n        string longitude;\n        string name;\n    }\n\n    function constructTokenURI(URIParams memory params) public view returns (string memory) {\n        string memory name = string(abi.encodePacked(params.name, ' NFT'));\n        string memory description = generateDescription();\n        string memory image = Base64.encode(bytes(generateSVGImage(params)));\n\n        return\n            string(\n                abi.encodePacked(\n                    'data:application/json;base64,',\n                    Base64.encode(\n                        bytes(\n                            abi.encodePacked(\n                                '{\"name\":\"',\n                                name,\n                                '\", \"description\":\"',\n                                description,\n                                '\", \"image\": \"',\n                                'data:image/svg+xml;base64,',\n                                image,\n                                '\"}'\n                            )\n                        )\n                    )\n                )\n            );\n    }\n\n    function escapeQuotes(string memory symbol) internal pure returns (string memory) {\n        bytes memory symbolBytes = bytes(symbol);\n        uint8 quotesCount = 0;\n        for (uint8 i = 0; i < symbolBytes.length; i++) {\n            if (symbolBytes[i] == '\"') {\n                quotesCount++;\n            }\n        }\n        if (quotesCount > 0) {\n            bytes memory escapedBytes = new bytes(symbolBytes.length + (quotesCount));\n            uint256 index;\n            for (uint8 i = 0; i < symbolBytes.length; i++) {\n                if (symbolBytes[i] == '\"') {\n                    escapedBytes[index++] = '\\\\';\n                }\n                escapedBytes[index++] = symbolBytes[i];\n            }\n            return string(escapedBytes);\n        }\n        return symbol;\n    }\n\n     function addressToString(address addr) internal pure returns (string memory) {\n        return (uint256(addr)).toHexString(20);\n    }\n\n    function toColorHex(uint256 base, uint256 offset) internal view returns (string memory str) {\n        // console.log(\"base\", base);\n        // console.log(\"(base >> offset)\", (base >> offset));\n        // console.log(\"hex\", string((base >> offset).toHexStringNoPrefix(3)));\n        return string((base <<= offset).toHexStringNoPrefix(3));\n    }\n\n    function generateDescription() private pure returns (string memory) {\n        return\n            string(\n                abi.encodePacked(\n                    'This NFT represents a top 200 cities in the planet Earth\\\\n'\n                )\n            );\n    }\n\n    function generateSVGImage(URIParams memory params) internal view returns (string memory svg) {\n        NFTSVG.SVGParams memory svgParams =\n            NFTSVG.SVGParams({\n                tokenId: params.tokenId,\n                blockNumber: params.blockNumber,\n                uToken: params.latitude,\n                longitude: params.longitude,\n                name: params.name,\n                color0: toColorHex(uint256(keccak256(abi.encodePacked(params.latitude,params.longitude))), 136),\n                color1: toColorHex(uint256(keccak256(abi.encodePacked(params.latitude,params.longitude))), 0)\n            });\n\n        return NFTSVG.generateSVG(svgParams);\n    }\n}",
  "sourcePath": "D:\\job\\NFT\\test\\luv-nft-estate\\truffle\\contracts\\GenerativeNFT.sol",
  "compiler": {
    "name": "solc",
    "version": "0.7.6+commit.7338295f.Emscripten.clang"
  },
  "schemaVersion": "3.4.3",
  "updatedAt": "2022-02-19T09:34:43.803Z",
  "devdoc": {
    "kind": "dev",
    "methods": {},
    "version": 1
  },
  "userdoc": {
    "kind": "user",
    "methods": {},
    "version": 1
  }
}